:020000040000FA
:10000000CCEF3AF0C96E12001AEF2FF07CEC20F022
:100010002DEC1EF0FDD71200BCEF35F0D9CFE5FF77
:10002000E1CFD9FF00C0E5FF01C0E5FF02C0E5FF59
:1000300003C0E5FF04C0E5FF05C0E5FF06C0E5FF1E
:1000400007C0E5FF08C0E5FF09C0E5FF0AC0E5FFFE
:100050000BC0E5FF0CC0E5FF0DC0E5FF0EC0E5FFDE
:100060000FC0E5FF10C0E5FF11C0E5FF12C0E5FFBE
:1000700013C0E5FF14C0E5FF15C0E5FF16C0E5FF9E
:1000800017C0E5FF18C0E5FF19C0E5FF1AC0E5FF7E
:100090001BC0E5FF1CC0E5FF1DC0E5FF1EC0E5FF5E
:1000A0001FC0E5FF20C0E5FF21C0E5FF22C0E5FF3E
:1000B00023C0E5FF020EDBCF00F0030EDBCF01F023
:1000C000040EDBCF02F00250086E0150076E0050A4
:1000D000066EE56A160EE56E0850E56E0750E56E91
:1000E0000650E56E800EE56E050EE56E000EE56EBF
:1000F000A0EC2DF0080EE1260EC503F00FC504F0AC
:1001000010C505F011C506F003C007F004C008F0E3
:1001100005C009F006C00AF0D8800AAED8900AE3FC
:100120000A1E091E081E076C05E1082A03E1092AB8
:10013000D8B40A2A00C50BF001C50CF002C50DF0B9
:1001400003C50EF0050105510F6E0651106E0751E3
:10015000116E126A11BE12680F500B5C0F6E1050B8
:100160000C58106E11500D58116E12500E58126E20
:1001700008C513F009C514F00AC515F00BC516F033
:100180001350141015101610D8B447D00F50176E16
:100190001050186E1150196E12501A6E1350172607
:1001A000145018221550192216501A22D8901630C1
:1001B0001E6E15301D6E14301C6E13301B6E17260C
:1001C0001C5018221D5019221E501A221650E56E7E
:1001D0001550E56E1450E56E1350E56E1A50E56E3D
:1001E0001950E56E1850E56E1750E56E0EEC28F0CC
:1001F000136EF3CF14F0F4CF15F0E9CF16F0080E1C
:10020000E1261B50135C0F6E1C501458106E1D50CD
:100210001558116E1E501658126ED89012AED88016
:10022000D8A044D01250800F800F08E1000E115C5E
:1002300005E1000E105C02E1010E0F5C37E20A34AA
:100240000A30166E0930156E0830146E0730136EC2
:1002500014C517F015C518F0E86A050115BFFF0EA3
:10026000196E800FF36E1650800FF35C08E1155085
:10027000195C05E11450185C02E11350175C16E399
:100280000D50166E0C50156E0B50146E136A1350F1
:100290000501046F1450056F1550066F1650076F57
:1002A0000E6B0F6B106B116B79EF04F00A340A3090
:1002B0000E6A09300C6E08300B6E0850076E09503C
:1002C000086EE86A0CBEFF0E096E0A6EE86A08BE88
:1002D000FF0E0D6EE56E0D50E56E0850E56E075091
:1002E000E56E0A50E56E0950E56E0C50E56E0B5058
:1002F000E56E91EC21F0076EF3CF08F0F4CF09F032
:10030000E9CF0AF0080EE12614C50BF015C50CF074
:10031000E86A050115BFFF0E0D6E0E6EE56E0D50FD
:10032000E56E0C50E56E0B50E56E0A50E56E095017
:10033000E56E0850E56E0750E56E4EEC24F0076E52
:10034000F3CF08F0080EE1260CC509F00DC50AF040
:10035000E86A05010DBFFF0E136E186E0A50176E86
:100360000950166E156AD88006AED890D8B047D11D
:1003700007C009F008C00AF0E86A08BEFF0E136E55
:10038000800FF36E1250800FF35C08E11150135C84
:1003900005E110500A5C02E10F50095CD8B007D1AA
:1003A0000650800FF36E1850800FF35C08E1175071
:1003B000055C05E11650045C02E11550035CD8B001
:1003C000CFD012C509F013C50AF0E86A050113BFC2
:1003D000FF0E136E146E0350092604500A220550B6
:1003E000132206501422095005010E6F0A500F6F98
:1003F0001350106F1450116F14C509F015C50AF091
:1004000012C513F013C514F00A50800FF36E145088
:10041000800FF35C02E11350095CD8B085D00EC5A3
:1004200019F00FC51AF010C51BF011C51CF01C34D3
:100430001C30206A1B301E6E1A301D6E1A501F6E43
:100440001B50206EE86A1EBEFF0E216E226EE86A07
:1004500020BEFF0E236EE56E2350E56E2050E56E44
:100460001F50E56E2250E56E2150E56E1E50E56E80
:100470001D50E56E91EC21F01D6EF3CF1EF0F4CF10
:100480001FF0E9CF20F0080EE12609C021F00AC0D4
:1004900022F0E86A0ABEFF0E236EE56E2350E56E79
:1004A0002250E56E2150E56E2050E56E1F50E56E3E
:1004B0001E50E56E1D50E56E4EEC24F01D6EF3CF20
:1004C0001EF0080EE126E86A1EBEFF0E1F6E206EAB
:1004D0001250800FF36E2050800FF35C08E11F5024
:1004E000115C05E11E50105C02E11D500F5C1CE226
:1004F0000950135C096E0A5014580A6EE86A0ABE65
:10050000FF0E136E146E0950195E0A501A5A1350DA
:100510001B5A14501C5A195005010E6F1A500F6FB8
:100520001B50106F1C50116F1850800FF36E050197
:100530001151800FF35C08E11051175C05E10F5178
:10054000165C02E10E51155CD8B0B9D11550050109
:100550000E6F16500F6F1750106F1850116FAFD1EC
:100560001850800FF36E0650800FF35C08E10550C1
:10057000175C05E10450165C02E10350155CD8B02D
:100580009ED10B50035C096E0C5004580A6E0D503E
:100590000558136E0E500658146E095005010E6F63
:1005A0000A500F6F1350106F1450116F88D112C57D
:1005B00009F013C50AF0E86A050113BFFF0E136EB8
:1005C000146E0B5009260C500A220D5013220E50A7
:1005D00014220950035C096E0A5004580A6E135025
:1005E0000558136E14500658146E095005010E6F0D
:1005F0000A500F6F1350106F1450116F60D1081E06
:10060000076CD8B4082AE86A08BEFF0E096E0A6EA5
:100610001250800FF36E0A50800FF35C08E109500E
:10062000115C05E10850105C02E107500F5CD8B086
:1006300023D1181C0A6E171C096E161C086E151C97
:10064000076E072A04E1082A02E1094A0A2A0A5029
:10065000800FF36E0650800FF35C08E10550095CD3
:1006600005E10450085C02E10350075CD8B0DDD01E
:1006700012C513F013C514F0E86A050113BFFF0E8D
:10068000156E166E1350035C136E14500458146EDE
:1006900015500558156E16500658166E1350050164
:1006A0000E6F14500F6F1550106F1650116F14C548
:1006B00013F015C514F012C515F013C516F014503B
:1006C000800FF36E1650800FF35C02E11550135C3F
:1006D000D8B08FD00EC517F00FC518F010C519F09F
:1006E00011C51AF01A341A301E6A19301C6E1830EF
:1006F0001B6E1C1E1B6CD8B41C2A18501D6E195082
:100700001E6E1E1E1D6CD8B41E2AE86A1CBEFF0E8B
:100710001F6E206EE86A1EBEFF0E216EE56E215030
:10072000E56E1E50E56E1D50E56E2050E56E1F50C3
:10073000E56E1C50E56E1B50E56E91EC21F01B6ED2
:10074000F3CF1CF0F4CF1DF0E9CF1EF0080EE12628
:1007500013C01FF014C020F0E86A14BEFF0E216E13
:10076000E56E2150E56E2050E56E1F50E56E1E507F
:10077000E56E1D50E56E1C50E56E1B50E56E4EECAF
:1007800024F01B6EF3CF1CF0080EE1261C1E1B6C20
:10079000D8B41C2AE86A1CBEFF0E1D6E800FF36ED3
:1007A0001250800FF35C08E111501D5C05E1105000
:1007B0001C5C02E10F501B5C1CE21350155C136EB5
:1007C00014501658146EE86A14BEFF0E0F6E106EA9
:1007D00013501726145018220F50192210501A22A5
:1007E000175005010E6F18500F6F1950106F1A50E7
:1007F000116F05011151800FF36E0A50800FF35CE9
:1008000008E10950105D05E108500F5D02E1075055
:100810000E5DD8B054D0075005010E6F08500F6F11
:100820000950106F0A50116F4AD00650800FF36EB6
:100830000A50800FF35C08E10950055C05E108509F
:10084000045C02E10750035CD8B039D00B5003249C
:10085000076E0C500420086E0D500520096E0E50D6
:1008600006200A6E075005010E6F08500F6F0950E1
:10087000106F0A50116F23D012C507F013C508F08E
:10088000E86A050113BFFF0E096E0A6E07500B26BA
:1008900008500C2209500D220A500E220B5003263C
:1008A0000C5004220D5005220E5006220350050163
:1008B0000E6F04500F6F0550106F0650116F050139
:1008C0000F51036E1051046E1151056E066A05BE7C
:1008D00006680451032605510422065105220751DA
:1008E00006220350046F0450056F0550066F065032
:1008F000076F08C503F009C504F00AC505F00BC56C
:1009000006F00350041005100610D8B45ED0D8804D
:10091000050107AFD89020E305500A6E0450096E18
:100920000350086E076A04510B6E05510C6E065198
:100930000D6E07510E6E0B5007260C5008220D50FD
:1009400009220E500A220750046F0850056F095003
:10095000066F0A50076F39D005500A6E0450096EB1
:100960000350086E076A05010451036E0551046EB9
:100970000651056E0751066E0A50065C08E10950E3
:10098000055C05E10850045C02E10750035C1DE3CF
:1009900005010451036E0551046E0651056E0751A1
:1009A000066E0750035C076E08500458086E095025
:1009B0000558096E0A5006580A6E0750046F085011
:1009C000056F0950066F0A50076FE56A160EE56E4F
:1009D000800EE56E050EE56E000EE56E0250E56ECA
:1009E0000150E56E0050E56EA0EC2DF0080EE126FA
:1009F000E4CF23F0E4CF22F0E4CF21F0E4CF20F0E5
:100A0000E4CF1FF0E4CF1EF0E4CF1DF0E4CF1CF0E4
:100A1000E4CF1BF0E4CF1AF0E4CF19F0E4CF18F0E4
:100A2000E4CF17F0E4CF16F0E4CF15F0E4CF14F0E4
:100A3000E4CF13F0E4CF12F0E4CF11F0E4CF10F0E4
:100A4000E4CF0FF0E4CF0EF0E4CF0DF0E4CF0CF0E4
:100A5000E4CF0BF0E4CF0AF0E4CF09F0E4CF08F0E4
:100A6000E4CF07F0E4CF06F0E4CF05F0E4CF04F0E4
:100A7000E4CF03F0E4CF02F0E4CF01F0E4CF00F0E4
:100A8000E4CFD9FF1200D9CFE5FFE1CFD9FF00C0F5
:100A9000E5FF01C0E5FF02C0E5FF03C0E5FF04C0BC
:100AA000E5FF05C0E5FF06C0E5FF07C0E5FF08C09C
:100AB000E5FF09C0E5FF0AC0E5FF0BC0E5FF0CC07C
:100AC000E5FF0DC0E5FF020EDBCF00F0030EDBCF2C
:100AD00001F0040EDBCF02F00050090F066E000E8D
:100AE0000120076E000E0220086E0B6E07500A6E82
:100AF0000650096EE56A0F0EE56E0B50E56E0A5062
:100B0000E56E0950E56E800EE56E050EE56E260E6B
:100B1000E56EA0EC2DF0080EE12600C009F001C042
:100B20000AF002C00BF0E56AE56E0B50E56E0A5064
:100B3000E56E0950E56E800EE56E040EE56E810EE1
:100B4000E56EA0EC2DF0080EE12681C403F0035001
:100B5000010A04E00350030A01E013D105013051FA
:100B600005013D5D05018C6F0501315105013E59BF
:100B700005018D6F05013D510501306F05013E51A5
:100B80000501316F05013F510501326F05014051EB
:100B90000501336F05018C518D11D8A47ED03BEC3B
:100BA00038F0036EF3CF04F0F4CF05F0E9CF09F08D
:100BB000050135510A6E36510B6E37510C6E3851A6
:100BC0000D6E0A50035E0B50045A0C50055A0D501E
:100BD000095A035005014F6F0450506F0550516F73
:100BE0007F0E0914526F050134B125D0050150352F
:100BF0005231046E5131036E043404320332000E5C
:100C000004BEFF0E096E056E86C40AF00B6A0C6AFC
:100C10000D6A0D50800FF36E0950800FF35C08E1F0
:100C200005500C5C05E104500B5C02E103500A5CCA
:100C300002E205013481050134B149D02CC503F02D
:100C40002DC504F02EC505F02FC509F00501525140
:100C5000800FF36E0950800FF35C08E10550515D81
:100C600005E10450505D02E103504F5D08E203C00E
:100C70004FF504C050F505C051F509C052F5050106
:100C800041A304D0010E036E046A02D00368046815
:100C900003C08CF504C08DF51AD00501349139C517
:100CA0004FF53AC550F53BC551F53CC552F5050128
:100CB0004F5105012C6F0501505105012D6F0501A4
:100CC000515105012E6F0501525105012F6F05018C
:100CD0005251800F800F08E1000E515D05E1000EBA
:100CE000505D02E1010E4F5D06E20501536B546B4E
:100CF000556B566B46D005014F51036E5051046E33
:100D00005151056E5251E56E0550E56E0450E56E89
:100D10000350E56E010EE56E000EE56AE56AE56AD0
:100D200062EC2AF0036EF3CF04F0F4CF05F0E9CFC4
:100D300009F0080EE1268CC50AF08DC50BF0E86AB3
:100D400005018DBFFF0E0C6E0D6E0950E56E05504E
:100D5000E56E0450E56E0350E56E0D50E56E0C50E7
:100D6000E56E0B50E56E0A50E56E91EC21F0050141
:100D7000536FF3CF54F5F4CF55F5E9CF56F5080E80
:100D8000E126020E0401815DD8A0C5D1050141A173
:100D9000C2D10050250F036E000E0120046E000E1C
:100DA0000220E56E0450E56E0350E56E0EEC00F097
:100DB000030EE1260050250F036E000E0120046E85
:100DC000000E0220056E0350040F096E000E042071
:100DD0000A6E000E052009C0E9FF0AC0F3FF4EECC1
:100DE00039F0096EF3CF0AF0F4CF0BF0E9CF0CF035
:100DF000F00E0916093A0A3A0A140A1A09260B5083
:100E0000E838F00B0A12F00E0B160B3A0C3A0C14E1
:100E10000C1A0B26F00E0CB60C2605013D51095C90
:100E20000501576F05013E510A580501586F05012C
:100E30003F510B580501596F050140510C580501F0
:100E40005A6F080E0326000E0422052203C0E9FF94
:100E500004C0F3FF05504EEC39F0036EF3CF04F0FD
:100E6000F4CF05F0E9CF09F0035005015B6F0450A2
:100E70005C6F05505D6F09505E6F5B515C115D11D9
:100E80005E11D8B45DD05B5105015725036E050195
:100E90005C5105015821046E05015D510501592180
:100EA000056E05015E5105015A21096EE56AE56A84
:100EB000E56A020EE56E05015E51E56E5D51E56E77
:100EC0005C51E56E5B51E56E4EEC24F00A6EF3CF9B
:100ED0000BF0F4CF0CF0E9CF0DF0080EE1260A502C
:100EE00003260B5004220C5005220D500922050147
:100EF0005E51E56E5D51E56E5C51E56E5B51E56EF0
:100F00000950E56E0550E56E0450E56E0350E56E40
:100F10001DEC25F0036EF3CF04F0F4CF05F0E9CF1C
:100F200009F0080EE1260A50035C0501576F0B50CB
:100F30000458586F0C500558596F0D5009585A6F86
:100F4000D88005015AAFD89022E30401831D046EB6
:100F5000821D036E034A042AE86A04BEFF0E056E72
:100F6000096E05015A51800FF36E0950800FF35C32
:100F700008E10550595D05E10450585D02E1035058
:100F8000575D05E30501576B586B596B5A6B0501AB
:100F90005A51800F800F08E1000E595D05E1000EE7
:100FA000585D02E1010E575D1EE382C403F083C465
:100FB00004F0E86A040183BFFF0E056E800FF36E34
:100FC00005015A51800FF35C08E15951055C05E1B8
:100FD0005851045C02E15751035C05E30501576B6E
:100FE000586B596B5A6B0401875109E0E86CD89033
:100FF00005015737583759375A37010FF9E30501BB
:101000005A51800F800F08E1000E595D05E1800EF6
:10101000585D02E1000E575D07E3050157697F0E39
:10102000586F596B5A6B14D005015A51800F810FBC
:1010300008E1FF0E595D05E1800E585D02E1000EEA
:10104000575D06E20501576B800E586F59695A6962
:1010500000503B0F036E000E0120046E000E0220B4
:10106000056E05015751096E5851E56E0950E56E40
:101070000550E56E0450E56E0350E56E15EC17F073
:10108000050EE12604018151030A23E100503B0FC4
:10109000036E000E0120046E000E0220056E0B0E82
:1010A0000326000E0422052203C0E9FF04C0F3FF5B
:1010B00005504EEC39F0F3CF04F0F4CF05F00450B6
:1010C000036E0550046E03500501266F0450276F10
:1010D00022D000503B0F036E000E0120046E000E64
:1010E0000220056E0B0E0326000E0422052203C00B
:1010F000E9FF04C0F3FF05504EEC39F0F3CF04F0E4
:10110000F4CF05F00450036E0550046E0350050142
:10111000286F0450296F81C403F00350010A04E0D2
:101120000350030A01E07DD026C503F027C504F073
:10113000E86A050127BFFF0E056E096E05015351D0
:10114000035C0501576F0501545104580501586FA0
:101150000501555105580501596F050156510958AA
:1011600005015A6F800F800F08E1000E595D05E1FF
:10117000800E585D02E1000E575D07E305015769D7
:101180007F0E586F596B5A6B14D005015A51800F5E
:10119000810F08E1FF0E595D05E1800E585D02E107
:1011A000000E575D06E20501576B800E586F5969B6
:1011B0005A6900504C0F036E000E0120046E000EA1
:1011C0000220056E05015751096E5851E56E095010
:1011D000E56E0550E56E0450E56E0350E56E15ECC6
:1011E00017F0050EE1264C0E0026000E0122022209
:1011F0000B0E0026000E0122022200C0E9FF01C0F2
:10120000F3FF02504EEC39F0F3CF01F0F4CF02F0CF
:101210000150006E0250016E00500501286F015010
:10122000296F2AC500F02BC501F028C502F029C599
:1012300003F00150800FF36E0350800FF35C02E166
:101240000250005C1FE20050190F046E000E0120D6
:10125000056E045005012A6F05502B6F28C509F053
:1012600029C50AF00A50800FF36E0550800FF35C19
:1012700002E10450095C2CE2095005012A6F0A5072
:101280002B6F26D00350800FF36E0150800FF35C5C
:1012900002E10050025C1CE2E70E0026D8A0010625
:1012A000005005012A6F01502B6F28C502F029C597
:1012B00003F00150800FF36E0350800FF35C02E1E6
:1012C0000250005C05E2025005012A6F03502B6FAB
:1012D0000850086EE56A0F0EE56E800EE56E050E8D
:1012E000E56E260EE56E0850E56E0750E56E065079
:1012F000E56EA0EC2DF0080EE126E4CF0DF0E4CF72
:101300000CF0E4CF0BF0E4CF0AF0E4CF09F0E4CF27
:1013100008F0E4CF07F0E4CF06F0E4CF05F0E4CF27
:1013200004F0E4CF03F0E4CF02F0E4CF01F0E4CF27
:1013300000F0E4CFD9FF120025642025640A0000E4
:10134000D9CFE5FFE1CFD9FF00C0E5FF01C0E5FF40
:1013500002C0E5FF03C0E5FF04C0E5FF05C0E5FFEF
:1013600006C0E5FF07C0E5FF08C0E5FF09C0E5FFCF
:101370000AC0E5FF0BC0E5FF0CC0E5FF0DC0E5FFAF
:101380000EC0E5FF0FC0E5FF10C0E5FF11C0E5FF8F
:1013900012C0E5FF13C0E5FF14C0E5FF15C0E5FF6F
:1013A00016C0E5FF17C0E5FF18C0E5FF19C0E5FF4F
:1013B0001AC0E5FF1BC0E5FF1CC0E5FF1DC0E5FF2F
:1013C0001EC0E5FF020EDBCF00F0030EDBCF01F005
:1013D000040EDBCF02F0050EDBCF03F0060EDBCFF1
:1013E00004F0070EDBCF05F0080EDBCF06F0090E88
:1013F000DBCF07F00A0EDBCF08F0096A0A6A02C0E9
:101400000DF00D50800A0DE102500501816F015071
:10141000806F00507F6F050E016E7F0E006E800E94
:10142000026E03C0E9FF04C0F3FF055016EC3BF069
:101430000B6E0B50D8B456EF0DF00B50250A02E09E
:101440003DEF0DF00C6A0D6A0E6A0F6A106A0A0E03
:10145000116E126A136A146A200E156E1668176AE6
:101460002B0E186E032A02E3044A052A03C0E9FF83
:1014700004C0F3FF055016EC3BF0196E250A13E18A
:101480001950E56E0250E56E0150E56E0050E56EB4
:101490007FEC2BF0040EE126094A0A2A032A02E314
:1014A000044A052ABED71950300A06E1300E156EDF
:1014B000032A02E3044A052A03C0E9FF04C0F3FF3C
:1014C000055016EC3BF02D0A06E1010E146E032ABE
:1014D00002E3044A052A03C0E9FF04C0F3FF0550F4
:1014E00016EC3BF0200A08E1010E176E200E186E74
:1014F000032A02E3044A052A03C0E9FF04C0F3FFFC
:10150000055016EC3BF02B0A06E1010E176E032A7C
:1015100002E3044A052A03C0E9FF04C0F3FF0550B3
:1015200016EC3BF0196E310E195C2BE33A0E195C88
:1015300028E203C019F004C01AF005C01BF019C05E
:10154000E9FF1AC0F3FF1B5016EC3BF01C6E300E87
:101550001C5C11E33A0E1C5C0EE213500A0DF3CF33
:101560001DF01C501D26D00E1D24136E192A02E3F7
:101570001A4A1B2AE4D719C003F01AC004F01BC092
:1015800005F003C0E9FF04C0F3FF055016EC3BF083
:101590002E0A2DE1032A02E3044A052A166A03C033
:1015A00019F004C01AF005C01BF019C0E9FF1AC0F9
:1015B000F3FF1B5016EC3BF01C6E300E1C5C11E36D
:1015C0003A0E1C5C0EE216500A0DF3CF1DF01C50B3
:1015D0001D26D00E1D24166E192A02E31A4A1B2A54
:1015E000E4D719C003F01AC004F01BC005F003C013
:1015F000E9FF04C0F3FF055016EC3BF0196E6C0ACE
:1016000007E1010E0C6E032A02E3044A052A09D001
:101610001950680A06E1010E0E6E032A02E3044A1D
:10162000052A03C0E9FF04C0F3FF055016EC3BF0A8
:10163000750A06E1010E106E032A02E3044A052A28
:1016400003C0E9FF04C0F3FF055016EC3BF0196E30
:10165000730A05E1010E0D6E200E156E3FD0195074
:10166000780A03E1100E116E39D01950580A05E1BD
:10167000100E116E010E126E31D01950630A02E184
:10168000116A2CD019506F0A03E1080E116E26D092
:101690001950660A03E1010E0F6E20D01950640A3A
:1016A0001DE01950690A1AE0105005E0FF0E0326EC
:1016B0000422052213D01950E56E0250E56E015048
:1016C000E56E0050E56E7FEC2BF0040EE126094A32
:1016D0000A2A032A02E3044A052AA3D60D5021E070
:1016E0000650030F0D6E000E0720196E000E082025
:1016F0001A6E0DC006F019C007F01AC008F0FD0EF2
:101700000D26FF0E19221A220DC0E9FF19C0F3FFA2
:101710001A50C8EC39F00D6EF3CF19F0F4CF1AF06F
:10172000FDD00F500DE0000E1A6E1B0E196E340E18
:101730000D6E040E0626000E072208221668EED053
:1017400016680C5023E00650040F0C6E000E0720A4
:101750000F6E000E08201B6E0CC006F00FC007F0C5
:101760001BC008F0FC0E0C26FF0E0F221B220CC023
:10177000E9FF0FC0F3FF1B504EEC39F00C6EF3CFB6
:101780000FF0F4CF1BF0E9CF1CF067D00E502FE024
:101790000650020F0E6E000E07201D6E000E082070
:1017A0001E6E0EC006F01DC007F01EC008F0FE0E33
:1017B0000E26FF0E1D221E220EC0E9FF1DC0F3FFE4
:1017C0001E50A0EC3AF00E6E0EC00CF00F6A1B6AB1
:1017D0001C6A11500A0A03E11050D8B43ED00C50D4
:1017E0000E6E0EC00CF00F6A1B6A1C6A36D00650D3
:1017F000020F0E6E000E07201D6E000E08201E6EDA
:101800000EC006F01DC007F01EC008F0FE0E0E262A
:10181000FF0E1D221E220EC0E9FF1DC0F3FF1E5049
:10182000A0EC3AF00E6EF3CF1DF00EC00CF01DC010
:101830000FF0E86A1DBEFF0E1B6E1C6E11500A0AE7
:1018400002E110500AE00C500E6E0F501D6E0EC0DB
:101850000CF01DC00FF01B6A1C6A050E196E430EBA
:101860000D6E800E1A6E1150D8B440D0105013E097
:101870001150E56E050EE56E430EE56E1C50E56EEB
:101880001B50E56E0F50E56E0C50E56E9BEC22F0A0
:10189000070EE12612D01150E56E050EE56E430EDF
:1018A000E56E1C50E56E1B50E56E0F50E56E0C505A
:1018B000E56E67EC32F0070EE12617502FE00DC001
:1018C000E9FF19C0F3FF1A5016EC3BF02D0A26E091
:1018D000FF0E0D2619221A2218C0E5FF0DC0E9FFE0
:1018E00019C0F3FF1A50A8EC3BF018D00CC0E5FF6C
:1018F0000DC0E9FF19C0F3FF1A50A8EC3BF00D50E2
:10190000010F0C6E000E19200E6E000E1A20E56AF3
:101910000CC0E9FF0EC0F3FFA8EC3BF00DC00CF0CB
:1019200019C00EF01AC00FF013C010F0105010E0E4
:101930000CC0E9FF0EC0F3FF0F5016EC3BF0176E22
:10194000175006E00C2A02E30E4A0F2A1006EED7C3
:1019500010C013F014501EE109C00CF00AC00EF0C4
:1019600010C00FF00F5010E01550E56E0250E56EFC
:101970000150E56E0050E56E7FEC2BF0040EE12681
:101980000C4A0E2A0F06EED70CC009F00EC00AF062
:101990000FC013F016C00CF00DC00DF019C00EF002
:1019A0001AC00FF009C010F00AC015F00DC0E9FF11
:1019B0000EC0F3FF0F5016EC3BF0166E1650D8B465
:1019C0003ED00CC016F0176A161E171E16501710C0
:1019D00005E00CC016F00C06165031E00DC0E9FF12
:1019E0000EC0F3FF0F5016EC3BF0116E125010E0DA
:1019F0001150E56E5DEC3AF0166EE652165004E0BA
:101A0000DF0E1114166E02D011C016F016C011F0C0
:101A10001150E56E0250E56E0150E56E0050E56E26
:101A20007FEC2BF0040EE1260D2A02E30E4A0F2A6A
:101A3000104A152A1350D8B4B9D71306B7D710C017
:101A400009F015C00AF014502BE010C00CF015C0BE
:101A50000DF013C00EF00E501FE0200EE56E025088
:101A6000E56E0150E56E0050E56E7FEC2BF0040E44
:101A7000E1260C4A0D2A0E06EED70B50E56E0250F9
:101A8000E56E0150E56E0050E56E7FEC2BF0040E24
:101A9000E126094A0A2A04D00CC009F00DC00AF058
:101AA000032A02E3044A052A11EF0AF00AC0F3FFF1
:101AB0000950E4CF1EF0E4CF1DF0E4CF1CF0E4CFDA
:101AC0001BF0E4CF1AF0E4CF19F0E4CF18F0E4CF24
:101AD00017F0E4CF16F0E4CF15F0E4CF14F0E4CF24
:101AE00013F0E4CF12F0E4CF11F0E4CF10F0E4CF24
:101AF0000FF0E4CF0EF0E4CF0DF0E4CF0CF0E4CF24
:101B00000BF0E4CF0AF0E4CF09F0E4CF08F0E4CF23
:101B100007F0E4CF06F0E4CF05F0E4CF04F0E4CF23
:101B200003F0E4CF02F0E4CF01F0E4CF00F0E4CF23
:101B3000D9FF12003C4E4F20464C4F41543E00000E
:101B4000D9CFE5FFE1CFD9FF00C0E5FF01C0E5FF38
:101B500002C0E5FF03C0E5FF04C0E5FF05C0E5FFE7
:101B600006C0E5FF07C0E5FF08C0E5FF09C0E5FFC7
:101B70000AC0E5FF0BC0E5FF0CC0E5FF0DC0E5FFA7
:101B8000020EDBCF00F0030EDBCF01F0040EDBCF43
:101B900002F0036A046A65EC38F0056EFE0A01E0A3
:101BA00075D03BEC34F065EC38F0066E030E065C45
:101BB000D8A05AD0060E065CD8B056D0FD0E06242A
:101BC000076EFA6AFB6A0734FA36E834FA36FC0B19
:101BD000E00FE56E1B0EFA22000EFB22E450F96EB8
:101BE000F6EF0DF008EF0EF021EF0EF00050090FA8
:101BF000076E000E0120086E000E022007C0E9FFEC
:101C000008C0F3FFA0EC3AF0036EF3CF04F02CD041
:101C10000050090F076E000E0120086E000E022012
:101C2000096E020E0726000E0822092207C0E9FFEE
:101C300008C0F3FF0950A0EC3AF0036EF3CF04F0B4
:101C400013D00050070F076E000E0120086E000E23
:101C5000022007C0E9FF08C0F3FF16EC3BF0010BC0
:101C6000076E07C003F0046A0450E56E0350E56E8A
:101C7000E56A0650E56E000EE56E130EE56E380E51
:101C8000E56EFDEC35F0070EE126B5D1080E055CDA
:101C9000D8B0B1D1FA6AFB6A0534FA36E834FA36BC
:101CA000FC0BB20FE56E1C0EFA22000EFB22E45074
:101CB000F96E69EF0EF084EF0EF096EF0EF0A8EFDC
:101CC0000EF0D0EF0EF0FCEF0EF01BEF0FF07AEFFE
:101CD0000FF00050250F036E000E0120046E000E61
:101CE0000220E56E0450E56E0350E56E1AEC10F02C
:101CF000030EE126020EE56E00C0E9FF01C0F3FF0E
:101D00000250A8EC3BF077D100503B0F036E000E61
:101D10000120046E000E0220E56E0450E56E0350B3
:101D2000E56EF9EC1CF0030EE12665D100504C0F76
:101D3000036E000E0120046E000E0220E56E0450BA
:101D4000E56E0350E56EF9EC1CF0030EE12653D16D
:101D50000050090F036E000E0120046E000E0220D9
:101D6000056E65EC38F0066A076E65EC38F0096AB6
:101D700006260950072206C0E5FF07C0F4FF03C08E
:101D8000E9FF04C0F3FF05506FEC3BF0010EE56E78
:101D900000C0E9FF01C0F3FF0250A8EC3BF02BD1DB
:101DA0000050090F036E000E0120046E000E022089
:101DB000056E020E0326000E0422052265EC38F0A3
:101DC000066A076E65EC38F0096A06260950072294
:101DD00006C0E5FF07C0F4FF03C0E9FF04C0F3FF3E
:101DE00005506FEC3BF0E56A00C0E9FF01C0F3FF6E
:101DF0000250A8EC3BF0FFD00050070F036E000E1E
:101E00000120046E000E0220056E65EC38F0010B17
:101E1000F46E03C0E9FF04C0F3FF055016EC3BF07D
:101E2000FE0BF410E56E03C0E9FF04C0F3FF05509C
:101E3000A8EC3BF0E0D065EC38F0036E0050180FD2
:101E4000046E000E0120056E000E0220066E045086
:101E50000C0F076E000E0520086E000E0620096E9E
:101E60000350D880E866D8900A6A0A360A50D880AB
:101E7000E866D8900A6A0A360A50010BF46E07C069
:101E8000E9FF08C0F3FF095016EC3BF0FE0BF4101D
:101E9000E56E07C0E9FF08C0F3FF0950A8EC3BF06E
:101EA0000350010A01E0A7D0080E0426000E052207
:101EB0000622E56AF46AF66AF76A04C0E9FF05C01B
:101EC000F3FF065005EC3BF00050250F036E000EAB
:101ED0000120046E000E0220E56AE56AE56AE56A03
:101EE000E56E0450E56E0350E56E77EC23F0070EC7
:101EF000E12681D065EC38F0066E056A65EC38F0B5
:101F0000046A05260450062206500A6E0550096E22
:101F1000076A086A65EC38F0066E046A65EC38F00A
:101F2000036A0426035006220450071206500812C2
:101F3000035009120A120050180F036E000E012000
:101F4000046E000E0220056E03500C0F066E000E8C
:101F500004200B6E000E05200C6E06C0E9FF0BC0BE
:101F6000F3FF16EC3BF0E880E56E06C0E9FF0BC01E
:101F7000F3FF0C50A8EC3BF0080E0326000E0422E1
:101F800005220A38F00B0D6E09380C6E0F0B0C1A77
:101F90000D260850E8380F0B0C120838F00B0B6EAA
:101FA0000738066E0F0B061A0B2606C0E5FF0BC09E
:101FB000F4FF0CC0F6FF0DC0F7FF03C0E9FF04C03B
:101FC000F3FF055005EC3BF0250E0026000E012224
:101FD00002220A50E56E0950E56E0850E56E075082
:101FE000E56E0250E56E0150E56E0050E56E77EC4F
:101FF00023F0070EE126E4CF0DF0E4CF0CF0E4CFA0
:102000000BF0E4CF0AF0E4CF09F0E4CF08F0E4CF1E
:1020100007F0E4CF06F0E4CF05F0E4CF04F0E4CF1E
:1020200003F0E4CF02F0E4CF01F0E4CF00F0E4CF1E
:10203000D9FF1200D9CFE5FFE1CFD9FF00C0E5FFFE
:1020400001C0E5FF02C0E5FF03C0E5FF04C0E5FFF6
:1020500005C0E5FF06C0E5FF07C0E5FF08C0E5FFD6
:1020600009C0E5FF0AC0E5FF0BC0E5FF0CC0E5FFB6
:10207000020EDBCF00F0030EDBCF01F0040EDBCF4E
:1020800002F0036A046A056A066A65EC38F0076EB6
:10209000FE0A01E0C4D03BEC34F065EC38F0086E89
:1020A000085014E00850010A2CE00850020A01E12F
:1020B00043D008500A0A01E15AD008500B0A01E146
:1020C00065D008500D0A01E17FD093D000500C0F6D
:1020D000096E000E01200A6E000E022009C0E9FF01
:1020E0000AC0F3FFA0EC3AF0096EF3CF0AF009C082
:1020F00003F00AC004F0E86A0ABEFF0E056E066E21
:1021000078D00050120F096E000E01200A6E000EEA
:10211000022009C0E9FF0AC0F3FFA0EC3AF0096E03
:10212000F3CF0AF009C003F00AC004F0E86A0ABE5F
:10213000FF0E056E066E5DD00050140F096E000E86
:1021400001200A6E000E022009C0E9FF0AC0F3FF59
:10215000A0EC3AF0096EF3CF0AF009C003F00AC010
:1021600004F0E86A0ABEFF0E056E066E42D000C09B
:10217000E9FF01C0F3FF02504EEC39F0036EF3CFDC
:1021800004F0F4CF05F0E9CF06F033D00050040F8F
:10219000096E000E01200A6E000E022009C0E9FF40
:1021A0000AC0F3FF4EEC39F0F3CF0AF0F4CF0BF096
:1021B000E9CF0CF00A50036E0B50046E0C50056E04
:1021C000066A05BE066815D00050080F096E000E9D
:1021D00001200A6E000E022009C0E9FF0AC0F3FFC9
:1021E0004EEC39F0036EF3CF04F0F4CF05F0E9CFF5
:1021F00006F00650E56E0550E56E0450E56E03509E
:10220000E56EE56A0850E56E000EE56E620EE56E5D
:10221000620EE56EFDEC35F0090EE12648D107505F
:1022200018E00750010A34E00750020A01E14FD0DC
:1022300007500A0A01E16AD007500B0A01E19AD05F
:1022400007500C0A01E1CAD007500D0A01E1FAD08B
:102250002ED100500C0F036E000E0120046E000EF4
:102260000220056E65EC38F0066A076E65EC38F002
:10227000096A06260950072206C0E5FF07C0F4FFD9
:1022800003C0E9FF04C0F3FF05506FEC3BF00FD132
:102290000050120F036E000E0120046E000E02208B
:1022A000056E65EC38F0066A076E65EC38F0096A71
:1022B00006260950072206C0E5FF07C0F4FF03C049
:1022C000E9FF04C0F3FF05506FEC3BF0F0D0005085
:1022D000140F036E000E0120046E000E0220056E26
:1022E00065EC38F0066A076E65EC38F0096A062678
:1022F0000950072206C0E5FF07C0F4FF03C0E9FF4D
:1023000004C0F3FF05506FEC3BF0D1D065EC38F022
:10231000066E056A65EC38F0046A0526045006224C
:1023200006500A6E0550096E076A086A65EC38F0B7
:10233000066E046A65EC38F0036A04260350062230
:102340000450071206500812035009120A120A50CC
:10235000E56E0950E56E0850E56E0750E56E0250D7
:10236000E56E0150E56E0050E56E64EC27F0070E57
:10237000E1269DD065EC38F0066E056A65EC38F014
:10238000046A05260450062206500A6E0550096E9E
:10239000076A086A65EC38F0066E046A65EC38F086
:1023A000036A04260350062204500712065008123E
:1023B000035009120A120A50E56E0950E56E0850E2
:1023C000E56E0750E56E0250E56E0150E56E005077
:1023D000E56E77EC23F0070EE12669D065EC38F066
:1023E000066E056A65EC38F0046A0526045006227C
:1023F00006500A6E0550096E076A086A65EC38F0E7
:10240000066E046A65EC38F0036A0426035006225F
:102410000450071206500812035009120A120A50FB
:10242000E56E0950E56E0850E56E0750E56E025006
:10243000E56E0150E56E0050E56EE3EC25F0070E09
:10244000E12635D065EC38F0066E056A65EC38F0AB
:10245000046A05260450062206500A6E0550096ECD
:10246000076A086A65EC38F0066E046A65EC38F0B5
:10247000036A04260350062204500712065008126D
:10248000035009120A12080E0026000E0122022231
:1024900007C0E5FF08C0F4FF09C0F6FF0AC0F7FF58
:1024A00000C0E9FF01C0F3FF025005EC3BF0E4CFB0
:1024B0000CF0E4CF0BF0E4CF0AF0E4CF09F0E4CF66
:1024C00008F0E4CF07F0E4CF06F0E4CF05F0E4CF66
:1024D00004F0E4CF03F0E4CF02F0E4CF01F0E4CF66
:1024E00000F0E4CFD9FF120000C0E5FF01C0E5FF16
:1024F00002C0E5FF03C0E5FF04C0E5FF05C0E5FF3E
:1025000006C0E5FF07C0E5FF08C0E5FFC2A204D092
:1025100004012051B8EF14F004012151D8B436D190
:1025200004012051020DF450016EF3CF00F0E00ED3
:102530000026000E012200C0E9FF01C0EAFFEECF35
:1025400000F0EFCF01F0F00E2025026E036A040EBA
:10255000032202C0E9FF03C0EAFFEFCF02F00250FE
:10256000FF0A01E16DD009C0E5FFF2CF09F0F29E4C
:1025700002380F0B046E920E0424056E066A0F0ECD
:102580000622076A920E04260F0E072204C0E9FFF6
:1025900007C0EAFFEFCF04F00250076E070E0716E0
:1025A000010E086E07500DE006E6E86CD89008367C
:1025B000010FFDE306D0D89008BED8800832010F85
:1025C000FBE3081C076E0450071605C0E9FF06C0B0
:1025D000EAFF07C0EFFF02380F0B046E890E0424D8
:1025E000056E066A0F0E0622076A890E04260F0E74
:1025F000072204C0E9FF07C0EAFFEFCF04F0070E8F
:102600000216010E076E02500DE006E6E86CD89047
:102610000736010FFDE306D0D89007BED8800732F9
:10262000010FFBE3071C026E0450021605C0E9FF10
:1026300006C0EAFF02C0EFFF09BEF28EE4CF09F048
:1026400004012051020DF450036EF3CF02F0E00EAE
:102650000226000E032201340130056E0030046EA4
:102660000534053204320534053204320450005C6E
:10267000046E05500158056EC3CF00F0016A00508A
:10268000042601500522C4CF00F0016A0050076EF5
:10269000066A065004260750052202C0E9FF03C05F
:1026A000EAFF04C0EEFF05C0EFFF04011C51010A60
:1026B00001E06AD004012051020DF450016EF3CF05
:1026C00000F0E00E0024026E000E0120036E02C036
:1026D000E9FF03C0EAFFEECF02F0EFCF03F07D0E7B
:1026E0000026030E012200C0E9FF01C0EAFFEECF81
:1026F00004F0EFCF05F09C0E0426D8A00506035089
:10270000800FF36E0550800FF35C02E10450025C11
:102710000EE20250640F046E000E0320056E00C02E
:10272000E9FF01C0EAFF04C0EEFF05C0EFFF0401AE
:102730002051020DF450016EF3CF00F09D0E0026E3
:10274000030E012200C0E9FF01C0EAFFEECF04F052
:10275000EFCF05F0640E0426D8B0052A0550800F8F
:10276000F36E0350800FF35C02E10250045C0CE254
:102770009C0E0226D8A0030600C0E9FF01C0EAFFB4
:1027800002C0EEFF03C0EFFF0401216B0401202B08
:10279000100E205DD8B0206B2039E8441F0B006E6E
:1027A000016A880E0026050E012200C0E9FF01C063
:1027B000EAFFEFCF00F020C401F0070E0116010E72
:1027C000026E000E036E015006E0E86CD8900236EF
:1027D0000336010FFCE3046A00500216045003168E
:1027E00002500310D880E866D890026A0236025080
:1027F000D8A4BCD0160E04012025006E016A050E77
:10280000012200C0E9FF01C0EAFFEFCF00F0004461
:10281000E844FC0B016E0128C26EF00E2025006E0C
:10282000016A040E012200C0E9FF01C0EAFFEFCFF8
:1028300000F00050FF0A01E195D009C0E5FFF2CF9A
:1028400009F0F29E00380F0B026E920E0224036E06
:10285000046A0F0E0422056A920E02260F0E05224C
:1028600002C0E9FF05C0EAFFEFCF02F00050056E9D
:10287000070E0516010E066E05500DE006E6E86C23
:10288000D8900636010FFDE306D0D89006BED8805A
:102890000632010FFBE30250061203C0E9FF04C039
:1028A000EAFF06C0EFFF09BEF28EE4CF09F0380E52
:1028B000016E0F0E026E00380F0B036E046A035098
:1028C000012604500222380E056E0F0E066E0550CA
:1028D00003260650042203C0E9FF04C0EAFFEFCF3D
:1028E00003F0070E0016010E046E00500DE006E620
:1028F000E86CD8900436010FFDE306D0D89004BEF2
:10290000D8800432010FFBE30350041201C0E9FF39
:1029100002C0EAFF04C0EFFF0F0145830000000082
:1029200045930F01449309C0E5FFF2CF09F0F29EF1
:1029300044810000000000000000000000000000D2
:102940000000000000000000000000000000000087
:1029500000000000000000000000449109BEF28E5B
:10296000E4CF09F0C282010E0401216F040120515D
:10297000E4CF08F0E4CF07F0E4CF06F0E4CF05F0B1
:10298000E4CF04F0E4CF03F0E4CF02F0E4CF01F0B1
:10299000E4CF00F0120000C0E5FF01C0E5FF02C077
:1029A000E5FF03C0E5FF04C0E5FF05C0E5FF06C085
:1029B000E5FF07C0E5FF08C0E5FF09C0E5FF0AC065
:1029C000E5FF0BC0E5FF0CC0E5FF006A016A026A83
:1029D000040E025CD8B0EBD1100E015CD8B0E7D188
:1029E000012A0401222B100E225DD8B0226B22395D
:1029F000E8441F0B036E046A880E0326050E0422AA
:102A000003C0E9FF04C0EAFFEFCF03F022C404F0E3
:102A1000070E0416010E056E000E066E045006E049
:102A2000E86CD89005360636010FFCE3076A0350C0
:102A300005160750061605500610D880E866D8908F
:102A4000056A05360550D8A4C3D704012251020DEA
:102A5000F450046EF3CF03F0E00E0324056E000E75
:102A60000420066E05C0E9FF06C0EAFFEECF05F0C0
:102A7000EFCF06F01FC407F007A09DD07D0E032402
:102A8000076E030E0420086E07C0E9FF08C0EAFFC6
:102A9000EECF07F0EFCF08F00650800FF36E08502E
:102AA000800FF35C02E10750055C03E2056A066AE9
:102AB00060D09D0E0326030E042203C0E9FF04C06C
:102AC000EAFFEECF03F0EFCF04F00450800FF36E77
:102AD0000650800FF35C02E10550035C04E20568D8
:102AE0003F0E066E46D00750055C096E085006582A
:102AF0000A6EE86A0ABEFF0E0B6EE56E0B50E56EBD
:102B00000A50E56E0950E56EE56AE56A400EE56E2D
:102B1000000EE56A91EC21F0096EF3CF0AF0F4CFD4
:102B20000BF0E9CF0CF0080EE1260750035C076EAE
:102B300008500458086EE86A08BEFF0E036EE56E82
:102B40000350E56E0850E56E0750E56E0C50E56EDB
:102B50000B50E56E0A50E56E0950E56E62EC2AF006
:102B6000036EF3CF04F0080EE1260350056E045007
:102B7000066E04011E51800FF36E0650800FF35C49
:102B800002E105501D5D03E3056A066A14D00401E5
:102B90001D51FF08036E3F0E1E55046E0650800F38
:102BA000F36E0450800FF35C02E10350055C03E315
:102BB00005683F0E066E04012251020DF450046EAA
:102BC000F3CF03F05D0E0326030E042203C0E9FFDA
:102BD00004C0EAFFEECF03F0EFCF04F00350055C32
:102BE000036E04500658046ED88004AED89004E3F7
:102BF000041E036CD8B4042A022A04011E51800F5B
:102C0000F36E0450800FF35C02E103501D5DD8B0F9
:102C1000DFD604012251020DF450046EF3CF03F00D
:102C20005D0E0326030E042203C0E9FF04C0EAFF81
:102C300005C0EEFF06C0EFFF1FC403F003A459D088
:102C40002251020DF450046EF3CF03F0BD0E0324A5
:102C5000076E030E0420086E07C0E9FF08C0EAFFF4
:102C6000EECF09F0EFCF0AF009500A10D8B441D0E6
:102C70005C0E0326040E042203C0E9FF04C0EAFF31
:102C8000EECF03F0EFCF04F00350055C036E045069
:102C90000658046E03101CE00450800F800F02E100
:102CA000010E035C0B6A0B360A50800F800F02E1A5
:102CB000010E095C096A09360B50091809E107C0C1
:102CC000E9FF08C0EAFF03C0EEFF04C0EFFF80D6B3
:102CD00004012251020DF450046EF3CF03F0BD0E37
:102CE0000326030E042203C0E9FF04C0EAFFEE6AD4
:102CF000EF6A1FC403F003A246D000500EE100C0EB
:102D000003F0002A046A230E0326040E042203C0E3
:102D1000E9FF04C0EAFF420EEF6E00C003F0002896
:102D2000046E076A230E0326040E072204012251B3
:102D3000086E640E082603C0E9FF07C0EAFF08C05A
:102D4000EFFF04C003F0042A076A230E0326040ED3
:102D500007220650086E03C0E9FF07C0EAFF08C05B
:102D6000EFFF04C003F00428006E046A230E03265C
:102D7000040E04220550076E03C0E9FF04C0EAFFF9
:102D800007C0EFFF25D622C403F00650E56E0550BC
:102D9000E56EE56A0350E56E000EE56E5B0EE56ECE
:102DA000340EE56EFDEC35F0070EE12611D602C0BB
:102DB00001F000501EE01FC402F002A21AD000C0B1
:102DC00002F0002A036A230E0226040E032202C028
:102DD000E9FF03C0EAFF0A0EEF6E0050E56E800EB9
:102DE000E56E040EE56E230EE56E22EC2EF0040E69
:102DF000E1260150E4CF0CF0E4CF0BF0E4CF0AF071
:102E0000E4CF09F0E4CF08F0E4CF07F0E4CF06F018
:102E1000E4CF05F0E4CF04F0E4CF03F0E4CF02F018
:102E2000E4CF01F0E4CF00F01200D9CFE5FFE1CF0D
:102E3000D9FF00C0E5FF01C0E5FF02C0E5FF03C008
:102E4000E5FF04C0E5FF05C0E5FF06C0E5FF07C0DC
:102E5000E5FF08C0E5FF09C0E5FF0AC0E5FF0BC0BC
:102E6000E5FF020EDBCF00F0030EDBCF01F0040E16
:102E7000DBCF02F0050EDBCF03F0060EDBCF04F054
:102E800002500A6E0150096E0050086EE56A110E7C
:102E9000E56E0A50E56E0950E56E0850E56E800E4D
:102EA000E56E0F0EE56E230EE56EA0EC2DF0080E1C
:102EB000E12632CF05F033CF06F0E86A0F0133BFC9
:102EC000FF0E076E0501666F0650656F0550646F53
:102ED000636B03C005F004C006F0E86A04BEFF0E91
:102EE000076E086E23CF09F0E56AE56AE56A0950C6
:102EF000E56E0850E56E0750E56E0650E56E05502C
:102F0000E56E91EC21F005015F6FF3CF60F5F4CF32
:102F100061F5E9CF62F5080EE1260F012451D8B41E
:102F2000AFD00450800F800F02E1010E035C25E357
:102F30000F012951800F7C0F08E1000E285D05E18B
:102F4000000E275D02E1000E265D17E20F013151F0
:102F5000800FF36E05016651800FF35C0DE1655142
:102F60000F01305D09E1050164510F012F5D04E19E
:102F7000050163510F012E5D33E3D88004AED89074
:102F8000D8A043D00F012951800F840F08E1000E13
:102F9000285D05E1000E275D02E1010E265D35E3A7
:102FA0000501661D0A6E651D096E641D046E631DB4
:102FB000036E032A04E1042A02E1094A0A2A0A509C
:102FC000800FF36E0F013151800FF35C08E1305137
:102FD000095C05E12F51045C02E12E51035C15E20E
:102FE00005500F012625036E06502721046E075059
:102FF0002821096E085029210A6E0350266F0450BB
:10300000276F0950286F0A50296F0F0126390F0BBF
:10301000036E2739046EF00B041A03262851E83892
:10302000F00B041228390F0B096E29390A6EF00BC8
:103030000A1A0926F00E0AB60A2624CF0BF0E56A12
:10304000E56AE56A0B50E56E0A50E56E0950E56EDB
:103050000450E56E0350E56E91EC21F0036EF3CF62
:1030600004F0F4CF09F0E9CF0AF0080EE12603508E
:1030700005015F2704506023095061230A50622331
:103080000F012551D8B465D02A51055C0501676F41
:103090000F012B5106580501686F0F012C5107587D
:1030A0000501696F0F012D51085805016A6F800FE6
:1030B000800F08E1010E695D05E1000E685D02E127
:1030C000000E675D06E3050167696869696B6A6BF5
:1030D00013D005016A51800F810F08E1FF0E695D71
:1030E00005E1000E685D02E1000E675D05E2050185
:1030F000676B686B69696A69050167516725036ECB
:103100006835046E6935096E6A350A6E25CF0BF095
:10311000E56AE56AE56A0B50E56E0A50E56E09500E
:10312000E56E0450E56E0350E56E91EC21F0036E00
:10313000F3CF04F0F4CF09F0E9CF0AF0080EE1264E
:10314000035005015F2704506023095061230A5092
:10315000622305500F012A6F06502B6F07502C6F0A
:1031600008502D6F05016651800FF36E0501625105
:10317000800FF35C0DE161510501655D09E1050119
:1031800060510501645D04E105015F510501635D66
:1031900011E2050163510F012E6F050164510F010A
:1031A0002F6F050165510F01306F050166510F0149
:1031B000316F3AD00501661D066E651D056E641DF2
:1031C000046E631D036E032A04E1042A02E1054A2A
:1031D000062A05016251800FF36E0650800FF35CE2
:1031E00008E10550615D05E10450605D02E10350B6
:1031F0005F5D0AE203500F012E6F04502F6F0550E0
:10320000306F0650316F10D005015F510F012E6FE6
:10321000050160510F012F6F050161510F01306FE2
:10322000050162510F01316FE56A110EE56E800EE6
:10323000E56E0F0EE56E230EE56E0250E56E015051
:10324000E56E0050E56EA0EC2DF0080EE126E4CF0F
:103250000BF0E4CF0AF0E4CF09F0E4CF08F0E4CFBC
:1032600007F0E4CF06F0E4CF05F0E4CF04F0E4CFBC
:1032700003F0E4CF02F0E4CF01F0E4CF00F0E4CFBC
:10328000D9FF1200800EE56E030EE56E9D0EE56E11
:103290008DEC34F0030EE126800EE56E030EE56E34
:1032A0007D0EE56E8DEC34F0030EE126800EE56EAA
:1032B000030EE56E9F0EE56E8DEC34F0030EE126F5
:1032C000800EE56E030EE56E7F0EE56E8DEC34F03C
:1032D000030EE126800EE56E030EE56EA10EE56E8F
:1032E0008DEC34F0030EE126800EE56E030EE56EE4
:1032F000810EE56E8DEC34F0030EE126800EE56E56
:10330000030EE56EA30EE56E8DEC34F0030EE126A0
:10331000800EE56E030EE56E830EE56E8DEC34F0E7
:10332000030EE126800EE56E030EE56EA50EE56E3A
:103330008DEC34F0030EE126800EE56E030EE56E93
:10334000850EE56E8DEC34F0030EE126800EE56E01
:10335000030EE56EA70EE56E8DEC34F0030EE1264C
:10336000800EE56E030EE56E870EE56E8DEC34F093
:10337000030EE126800EE56E030EE56EA90EE56EE6
:103380008DEC34F0030EE126800EE56E030EE56E43
:10339000890EE56E8DEC34F0030EE126800EE56EAD
:1033A000030EE56EAB0EE56E8DEC34F0030EE126F8
:1033B000800EE56E030EE56E8B0EE56E8DEC34F03F
:1033C000030EE126800EE56E030EE56EAD0EE56E92
:1033D0008DEC34F0030EE126800EE56E030EE56EF3
:1033E0008D0EE56E8DEC34F0030EE126800EE56E59
:1033F000030EE56EAF0EE56E8DEC34F0030EE126A4
:10340000800EE56E030EE56E8F0EE56E8DEC34F0EA
:10341000030EE126800EE56E030EE56EB10EE56E3D
:103420008DEC34F0030EE126800EE56E030EE56EA2
:10343000910EE56E8DEC34F0030EE126800EE56E04
:10344000030EE56EB30EE56E8DEC34F0030EE1264F
:10345000800EE56E030EE56E930EE56E8DEC34F096
:10346000030EE126800EE56E030EE56EB50EE56EE9
:103470008DEC34F0030EE126800EE56E030EE56E52
:10348000950EE56E8DEC34F0030EE126800EE56EB0
:10349000030EE56EB70EE56E8DEC34F0030EE126FB
:1034A000800EE56E030EE56E970EE56E8DEC34F042
:1034B000030EE126800EE56E030EE56EB90EE56E95
:1034C0008DEC34F0030EE126800EE56E030EE56E02
:1034D000990EE56E8DEC34F0030EE126800EE56E5C
:1034E000030EE56EBB0EE56E8DEC34F0030EE126A7
:1034F000800EE56E030EE56E9B0EE56E8DEC34F0EE
:10350000030EE126120000C0E5FF01C0E5FF02C086
:10351000E5FF030E0501846F856B03012351040150
:10352000026F84C500F085C501F00501843F01D01C
:10353000852B000E0026040E012203012251026E8B
:10354000235100C0E9FF01C0EAFF02C0EFFF84C5BC
:1035500000F085C501F00501843F01D0852B000EE8
:103560000026040E012203012151026E00C0E9FF72
:1035700001C0EAFF02C0EFFF84C500F085C501F07D
:103580000501843F01D0852B000E0026040E012288
:1035900020C302F000C0E9FF01C0EAFF02C0EFFF54
:1035A00084C500F085C501F00501843F01D0852B5D
:1035B000000E0026040E0122026A82B8022A02507E
:1035C00003E1026A022A01D0026A00C0E9FF01C0D9
:1035D000EAFF02C0EFFF84C500F085C501F00501D8
:1035E000843F01D0852B000E0026040E012200C06E
:1035F000E9FF01C0EAFFEF6A84C500F085C501F06C
:103600000501843F01D0852B000E0026040E012207
:1036100003010E51026E00C0E9FF01C0EAFF02C0C3
:10362000EFFF84C500F085C501F00501843F01D09E
:10363000852B000E0026040E01220DC302F000C0EF
:10364000E9FF01C0EAFF02C0EFFF03012A51006E4B
:103650002B51016E00500501826F0150836F84C5AC
:1036600000F085C501F00501843F01D0852B000ED7
:103670000026040E0122000E050183BFFF0E026E1C
:1036800000C0E9FF01C0EAFF02C0EFFF84C500F0FF
:1036900085C501F00501843F01D0852B000E002671
:1036A000040E0122000E050183BFFF0E026E00C052
:1036B000E9FF01C0EAFF02C0EFFF84C500F085C545
:1036C00001F00501843F01D0852B000E0026040E79
:1036D000012205018351026E00C0E9FF01C0EAFF2B
:1036E00002C0EFFF84C500F085C501F00501843FED
:1036F00001D0852B000E0026040E01220501825107
:10370000026E00C0E9FF01C0EAFF02C0EFFF84C5FE
:1037100000F085C501F00501843F01D0852B000E26
:103720000026040E0122026A030124B1022A00C00D
:10373000E9FF01C0EAFF02C0EFFF84C500F085C5C4
:1037400001F00501843F01D0852B000E0026040EF8
:10375000012200C0E9FF01C0EAFF0A0EEF6E050179
:103760008451E56E800EE56E040EE56E000EE56E8A
:1037700022EC2EF0040EE126E4CF02F0E4CF01F0BB
:10378000E4CF00F0120000C0E5FF01C0E5FF02C079
:10379000E5FF03C0E5FF04C0E5FF05C0E5FF06C087
:1037A000E5FF07C0E5FF9EA010D1006A82B6002A9F
:1037B0000050010BF46E03010851FE0BF410086F6A
:1037C00082B802D0248502D003012495006A030147
:1037D00008B1002A016A08B5012A0050011801E168
:1037E000F0D0006A030108B1002A0050010BE84440
:1037F000E844F46E0851FB0BF410086F18511C5D7F
:10380000006E19511D59016E1A511E59026E1B513D
:103810001F59036E00501C6F01501D6F02501E6F28
:1038200003501F6F0F0134510301186F0F01355101
:103830000301196F0F01365103011A6F0F01375140
:1038400003011B6F0F0134510026355101223651FF
:10385000022237510322005003011C6F01501D6FDB
:1038600002501E6F03501F6F006A80BA002A00507A
:10387000010BE844F46E0851FD0BF410086F006A68
:1038800008B1002A016A08B3012A0150D880E8660D
:10389000D890016A01360150001A0050D8B451D0B6
:1038A00020C300F021C301F022C302F023C303F0C0
:1038B000002A04E3012A02E3024A032A005003011A
:1038C000206F0150216F0250226F0350236F248319
:1038D0002DC300F02EC301F02FC302F030C303F05C
:1038E0000050011002100310D8B46BD02051046EA8
:1038F0002151056E2251066E2351076E0350075C5D
:1039000008E10250065C05E10150055C02E100504F
:10391000045CD8A056D00050045C006E01500558DD
:10392000016E02500658026E03500758036E005095
:103930000301206F0150216F0250226F0350236F4B
:1039400040D020C300F021C301F022C302F023C302
:1039500003F0FF0E00260122022203220050030181
:10396000206F0150216F0250226F0350236F249368
:103970002DC300F02EC301F02FC302F030C303F0BB
:1039800000500110021003101CE020C304F021C3FA
:1039900005F022C306F023C307F0D88007AED89005
:1039A00010E3045000260550012206500222075061
:1039B00003220050206F0150216F0250226F0350EC
:1039C000236FCF689B0ECE6E9E90E4CF07F0E4CFBE
:1039D00006F0E4CF05F0E4CF04F0E4CF03F0E4CF49
:1039E00002F0E4CF01F0E4CF00F0120043002563C1
:1039F0000000D9CFE5FFE1CFD9FF00C0E5FF01C04E
:103A0000E5FF02C0E5FF03C0E5FF04C0E5FF05C018
:103A1000E5FF06C0E5FF07C0E5FF08C0E5FF020EB1
:103A2000DBCF00F0030EDBCF01F0040EDBCF02F0A2
:103A3000036A046A65EC38F0056EFE0A01E075D091
:103A40003BEC34F065EC38F0066E040E065CD8B042
:103A50005AD0FA6AFB6A0634FA36E834FA36FC0BB6
:103A6000700FE56E3A0EFA22000EFB22E450F96E5A
:103A700040EF1DF04CEF1DF05FEF1DF072EF1DF0F9
:103A800000C0E9FF01C0F3FF025016EC3BF0076EE7
:103A900007C003F0046A37D00050010F076E000E14
:103AA0000120086E000E022007C0E9FF08C0F3FFE6
:103AB00016EC3BF0076E07C003F0046A24D00050F8
:103AC000020F076E000E0120086E000E022007C0D4
:103AD000E9FF08C0F3FF16EC3BF0076E07C003F0E8
:103AE000046A11D000500F0F076E000E0120086EFF
:103AF000000E022007C0E9FF08C0F3FFA0EC3AF077
:103B0000036EF3CF04F00450E56E0350E56EE56AF2
:103B10000650E56E000EE56E520EE56E760EE56E11
:103B2000FDEC35F0070EE12683D0040E055CD8B01D
:103B30007FD0FA6AFB6A0534FA36E834FA36FC0BB1
:103B4000500FE56E3B0EFA22000EFB22E450F96E98
:103B5000B0EF1DF0BDEF1DF0E8EF1DF0FEEF1DF022
:103B600065EC38F0036E03C0E5FF00C0E9FF01C05B
:103B7000F3FF0250A8EC3BF05BD00050010F036E46
:103B8000000E0120046E000E0220056E65EC38F078
:103B9000066E06C0E5FF03C0E9FF04C0F3FF055051
:103BA000A8EC3BF00650D8A443D00050030F036E9E
:103BB000000E0120046E000E0220E56AF46AF66A27
:103BC000F76A03C0E9FF04C0F3FF05EC3BF030D017
:103BD0000050020F036E000E0120046E000E022042
:103BE000056E65EC38F0066E06C0E5FF03C0E9FF20
:103BF00004C0F3FF0550A8EC3BF01AD00F0E0026CE
:103C0000000E0122022265EC38F0036A046E65ECB6
:103C100038F0066A03260650042203C0E5FF04C0FC
:103C2000F4FF00C0E9FF01C0F3FF02506FEC3BF06E
:103C3000E4CF08F0E4CF07F0E4CF06F0E4CF05F0DE
:103C4000E4CF04F0E4CF03F0E4CF02F0E4CF01F0DE
:103C5000E4CF00F0E4CFD9FF120000C0E5FF01C0BF
:103C6000E5FF02C0E5FF03C0E5FFD2EC29F074ECEC
:103C700012F03BEC38F0006EF3CF01F0F4CF02F01D
:103C8000E9CF03F004017C51005E7D51015A7E5161
:103C9000025A7F51035A039E3F0E035C08E1FF0E58
:103CA000025C05E1FF0E015C02E1FF0E005CD8B092
:103CB000F9D03BEC38F0F3CF01F0F4CF02F0E9CFCC
:103CC00003F0100F04017C6F270E01207D6F000EA2
:103CD00002207E6F000E03207F6F04C0E5FFF2CF4D
:103CE00004F0F29E030118510501356F03011951CB
:103CF0000501366F03011A510501376F03011B518E
:103D00000501386F03011C510501396F03011D5175
:103D100005013A6F03011E5105013B6F03011F515D
:103D200005013C6F0301205105013D6F0301215145
:103D300005013E6F0301225105013F6F030123512D
:103D40000501406F030124510501416F03011C6B04
:103D50001D6B1E6B1F6B04BEF28EE4CF04F0800E51
:103D6000E56E030EE56E000EE56E43EC05F0030E06
:103D7000E1260DC38EF50EC38FF505018F51800F1F
:103D80007C0F02E1000E8E5D04E305018E69030ED7
:103D90008F6F05018F51800F840F02E1010E8E5D40
:103DA00005E2010E05018E6FFC0E8F6F05018F512C
:103DB000800F800F02E1010E8E5D10E305018F512F
:103DC000800FF36E03010451800FF35C03E1035194
:103DD00005018E5D03E205018E6B8F6BD8800501B6
:103DE0008FAFD89015E30301041D016E031D006E13
:103DF000004A012A0150800FF36E05018F51800F98
:103E0000F35C02E18E51005C03E205018E6B8F6B67
:103E1000030107A309D024A507D0D88005018FAFDF
:103E2000D89002E38E6B8F6BD88005018FAFD8904E
:103E300007E38E51FF0F006E030E8F21016E04D039
:103E40008EC500F08FC501F000C090F501C091F55E
:103E50000F01549B05019051010BE838F46E0F01DE
:103E60005451EF0BF410546F050191359131016EEF
:103E70009031006E01340132003200500F01556F55
:103E8000D88005018FAFD89002E38A8A01D08A9A40
:103E900092C500F00501922B0B0E005C03E383EC4E
:103EA0001AF0926BE4CF03F0E4CF02F0E4CF01F01C
:103EB000E4CF00F0120000C0E5FF01C0E5FF02C042
:103EC000E5FF03C0E5FF04011951D8B40CD1A3A844
:103ED0001DD0A4A81BD005019C5105019A1905E12C
:103EE00053EC3BF005019A6BFED0000E05019C25BA
:103EF000006E016A0F0E012200C0E9FF01C0EAFF57
:103F0000EFCF96F59C2B96C573FFEDD0A3AAEBD00F
:103F1000A4AAE9D071A205D005019B8153EC3BF026
:103F2000E2D071A405D005019B8353EC3BF0DBD0BC
:103F300071A048D074CF96F51AC400F0016A008EC3
:103F400096C502F0036A0250001803E103500118FD
:103F500001E004D005019B897196C5D005019651F9
:103F600004E0965104011A1929E105019B99719603
:103F70000501965103E005019B9702D005019B873F
:103F800096C59FF598C5A0F505019851006E0004EF
:103F90000501A16F600E0501A025006E016A000EEB
:103FA000012200C0E9FF01C0EAFF96C5EFFFA02B88
:103FB000A051800A02E10501A06B95D005019B99F3
:103FC000718691D074CF96F505019BA921D01AC4B2
:103FD00000F0016A008E96C502F0036A02500018D4
:103FE00003E10350011801E011D0A39A7198929C4B
:103FF00005019A5104E1736A53EC3BF007D000CFFE
:1040000073FF010E05019C6FA3886DD071866BD084
:104010000501965105019F270501A0510501A11930
:104020001BE105019F510CE1A0C598F505019BB767
:1040300012D0A39A7198929C736A53EC3BF00BD008
:1040400005019B859BB707D0A39A7198929C010E9E
:10405000736E53EC3BF047D00501A051050199194F
:1040600008E1050199510501981903E053EC3BF073
:104070003AD098C500F0016A004A012AE56A800E2C
:10408000E56E0150E56E0050E56E88EC2FF0006E95
:10409000040EE12600500501976F0501A0190FE1FC
:1040A00096C500F01F0E00140501A16F006E020EF0
:1040B0000024A16F050198510501A127A19FA0C56A
:1040C00000F00501A02B016A600E0026000E0122FF
:1040D00000C0E9FF01C0EAFF96C5EFFFA051800ACA
:1040E00002E10501A06BE4CF03F0E4CF02F0E4CFDE
:1040F00001F0E4CF00F0120000C0E5FF01C0E5FFD1
:1041000002C0E5FF03C0E5FF05C0E5FFE0EC3BF0C2
:10411000929E899E3BEC38F0F3CF01F0F4CF02F091
:10412000E9CF03F0880F04017C6F130E01207D6F2F
:10413000000E02207E6F000E03207F6F1DEC2DF01D
:1041400089988A9A8A86040189839298939A939689
:10415000040192939488820E006E0F0E016E0F0E72
:10416000036E380E0026035001220F0E036E800EE0
:10417000005E0350015A820E026E0F0E036E0F0E88
:10418000056E380E0226055003220F0E056E800EB6
:10419000025E0550035A02C0E9FF03C0EAFFEFCFF9
:1041A00002F0029800C0E9FF01C0EAFF02C0EFFF81
:1041B0009486820E006E0F0E016E0F0E036E380E87
:1041C0000026035001220F0E036E800E005E035086
:1041D000015A820E026E0F0E036E0F0E056E380E20
:1041E0000226055003220F0E056E800E025E05505A
:1041F000035A02C0E9FF03C0EAFFEFCF02F00296C4
:1042000000C0E9FF01C0EAFF02C0EFFF928A800E02
:10421000006E0F0E016E0F0E036E380E0026035057
:104220000122800E026E0F0E036E800E005E0350A0
:10423000015A0F0E056E380E0226055003220F0E8E
:10424000056E800E025E0550035A02C0E9FF03C0EE
:10425000EAFFEFCF02F0029A00C0E9FF01C0EAFFD7
:1042600002C0EFFF0C0E0F01546F0F01549B5499C5
:104270000F01556B0301006B020E016F026B0A0EFA
:10428000036F046B100E056F070E066F079107830F
:10429000800EE56E030EE56E250EE56ECEEC30F079
:1042A000030EE126800EE56E030EE56E4C0EE56E04
:1042B000ABEC28F0030EE126800EE56E030EE56EF2
:1042C0003B0EE56EABEC28F0030EE1260301206BFC
:1042D000216B226B236B24912495096B0A6B0B6B6A
:1042E0000C6B0D6B0E6B136B146B156B166B0783DE
:1042F0000A0E016F026B640E036F046B060E066FED
:10430000C7EC3BF0330ECD6E9D809F80E4CF05F06F
:10431000E4CF03F0E4CF02F0E4CF01F0E4CF00F00B
:104320001200D9CFE5FFE1CFD9FF00C0E5FF01C002
:10433000E5FF02C0E5FF03C0E5FF04C0E5FF05C0DF
:10434000E5FF06C0E5FF07C0E5FF020EDBCF00F08A
:10435000030EDBCF01F0040EDBCF02F0050EDBCF46
:1043600003F0060EDBCF04F0070EDBCF05F0080EDE
:10437000DBCF06F0090EDBCF07F0005005016B6FB5
:1043800001506C6F02506D6F03506E6F0450050149
:104390006F6F0550706F0650716F0750726F050197
:1043A0006B5105017103F4CF01F0F3CF00F0005021
:1043B0000501756F0150766F05016B5105016F03A3
:1043C000F4CF01F0F3CF00F000500501736F0150FE
:1043D000746F05016E5105016F03F3CF00F0050105
:1043E000765100260050766F05016D51050170036E
:1043F000F3CF01F00150002600500501766F050152
:104400006D5105016F03F4CF01F0F3CF00F005010A
:1044100075510026765101220050756F0150766F5C
:1044200005016C5105017003F4CF03F0F3CF02F0E6
:10443000025000260350012200500501756F015003
:10444000766F05016C5105017103F3CF00F0005048
:1044500005017A6F05016C5105016F03F4CF01F07E
:10446000F3CF00F000500501786F0150796F05011E
:104470006B5105017203F3CF00F0005005017E6F10
:1044800005016B5105017003F4CF01F0F3CF00F08B
:10449000005005017C6F01507D6F0501776B0501B0
:1044A0007B6B0501775105017325006E050178517D
:1044B00005017421016E0501795105017521026E16
:1044C00005017A5105017621036E0050736F01508A
:1044D000746F0250756F0350766F05017B510501B3
:1044E0007325006E05017C5105017421016E0501E3
:1044F0007D5105017521026E05017E510501762170
:10450000036E03C0E9FF02C0F4FF01C0F3FF0050D7
:10451000E4CF07F0E4CF06F0E4CF05F0E4CF04F0F9
:10452000E4CF03F0E4CF02F0E4CF01F0E4CF00F0F9
:10453000E4CFD9FF1200D9CFE5FFE1CFD9FF00C00A
:10454000E5FF01C0E5FF02C0E5FF03C0E5FF04C0D1
:10455000E5FF05C0E5FF06C0E5FF07C0E5FF08C0B1
:10456000E5FF09C0E5FF0AC0E5FF0BC0E5FF0CC091
:10457000E5FF0DC0E5FF0EC0E5FF0FC0E5FF020E31
:10458000DBCF00F0030EDBCF01F0040EDBCF02F037
:10459000050EDBCF03F0060EDBCF04F0070EDBCFFA
:1045A00005F0080EDBCF06F0200E076E086A06C085
:1045B00009F00A6A0B6A0C6AE56AE56AE56A09505D
:1045C000E56E0350E56E0250E56E0150E56E005059
:1045D000E56E0EEC28F00D6E080EE126300E0D266D
:1045E0003A0E0D5C05E30D500E6E270E0E240D6E77
:1045F000FF0E07260822DD0E07240E6E030E08208C
:104600000F6E0EC0E9FF0FC0EAFF0DC0EFFF0C50A8
:10461000E56E0B50E56E0A50E56E0950E56E0350ED
:10462000E56E0250E56E0150E56E0050E56E62ECFD
:104630002AF0006EF3CF01F0F4CF02F0E9CF03F0DF
:10464000080EE1260050011002100310D8A4AFD7C5
:1046500007C000F008C001F004C002F005C003F07C
:1046600000C004F001C005F0004A012ADD0E042656
:10467000030E052204C0E9FF05C0EAFFEFCF04F0F6
:1046800002C0E9FF03C0EAFF04C0EFFF024A032AA9
:10469000000E015C02E1200E005CE2E302C0E9FFD3
:1046A00003C0EAFF000EEF6AE4CF0FF0E4CF0EF094
:1046B000E4CF0DF0E4CF0CF0E4CF0BF0E4CF0AF040
:1046C000E4CF09F0E4CF08F0E4CF07F0E4CF06F040
:1046D000E4CF05F0E4CF04F0E4CF03F0E4CF02F040
:1046E000E4CF01F0E4CF00F0E4CFD9FF1200D9CF3E
:1046F000E5FFE1CFD9FF00C0E5FF01C0E5FF02C043
:10470000E5FF03C0E5FF04C0E5FF05C0E5FF06C007
:10471000E5FF07C0E5FF08C0E5FF09C0E5FF0AC0E7
:10472000E5FF0BC0E5FF0CC0E5FF0DC0E5FF0EC0C7
:10473000E5FF020EDBCF00F0030EDBCF01F0040E2D
:10474000DBCF02F0050EDBCF03F0060EDBCF04F06B
:10475000070EDBCF05F0080EDBCF06F00050080F88
:10476000076E000E0120086E000E022007C0E9FF50
:1047700008C0F3FF4EEC39F0076EF3CF08F0F4CF2A
:1047800009F0E9CF0AF0081009100A102AE00350D6
:104790000B6E04500C6E05500D6E06500E6E0750D9
:1047A0000B2608500C2209500D220A500E22E56EED
:1047B0000950E56E0850E56E0750E56E0E50E56E47
:1047C0000D50E56E0C50E56E0B50E56E0EEC28F0CA
:1047D000036EF3CF04F0F4CF05F0E9CF06F0080E36
:1047E000E12603C0E5FF04C0F4FF05C0F6FF06C0E4
:1047F000F7FF00C0E9FF01C0F3FF025005EC3BF0FA
:104800000050040F076E000E0120086E000E0220FB
:10481000096E05500D6E04500C6E03500B6EE56A68
:104820000BC0F4FF0CC0F6FF0DC0F7FF07C0E9FF97
:1048300008C0F3FF095005EC3BF00E0E0026000EF9
:1048400001220222E56AF46AF66AF76A00C0E9FF0B
:1048500001C0F3FF025005EC3BF0E4CF0EF0E4CFD3
:104860000DF0E4CF0CF0E4CF0BF0E4CF0AF0E4CF8E
:1048700009F0E4CF08F0E4CF07F0E4CF06F0E4CF8E
:1048800005F0E4CF04F0E4CF03F0E4CF02F0E4CF8E
:1048900001F0E4CF00F0E4CFD9FF1200D9CFE5FF5B
:1048A000E1CFD9FF00C0E5FF01C0E5FF02C0E5FF91
:1048B00003C0E5FF04C0E5FF05C0E5FF06C0E5FF56
:1048C00007C0E5FF08C0E5FF09C0E5FF0AC0E5FF36
:1048D0000BC0E5FF0CC0E5FF0DC0E5FF020EDBCF0E
:1048E00000F0030EDBCF01F0040EDBCF02F0050E6B
:1048F000DBCF03F0060EDBCF04F0070EDBCF05F0B5
:10490000080EDBCF06F0090EDBCF07F0D88003AE30
:10491000D890086A083608500FE0031C0C6E021C81
:104920000B6E011C0A6E001C096E092A0DE10A2A91
:104930000BE10B4A0C2A08D000C009F001C00AF0B4
:1049400002C00BF003C00CF0D88007AED890006A0C
:10495000003600500FE0071C0D6E061C036E051C90
:10496000026E041C016E012A0DE1022A0BE1034ACA
:104970000D2A08D004C001F005C002F006C003F003
:1049800007C00DF00D50E56E0350E56E0250E56E68
:104990000150E56E0C50E56E0B50E56E0A50E56E69
:1049A0000950E56E62EC2AF0016EF3CF02F0F4CF0D
:1049B00003F0E9CF04F0080EE1260050081A085071
:1049C00016E0041C076E031C066E021C056E011C1B
:1049D000006E002A04E1052A02E1064A072A07C000
:1049E000E9FF06C0F4FF05C0F3FF005007D004C084
:1049F000E9FF03C0F4FF02C0F3FF0150E4CF0DF064
:104A0000E4CF0CF0E4CF0BF0E4CF0AF0E4CF09F0F0
:104A1000E4CF08F0E4CF07F0E4CF06F0E4CF05F0F0
:104A2000E4CF04F0E4CF03F0E4CF02F0E4CF01F0F0
:104A3000E4CF00F0E4CFD9FF1200D9CFE5FFE1CFFA
:104A4000D9FF00C0E5FF01C0E5FF02C0E5FF03C0DC
:104A5000E5FF04C0E5FF05C0E5FF06C0E5FF07C0B0
:104A6000E5FF08C0E5FF09C0E5FF0AC0E5FF0BC090
:104A7000E5FF0CC0E5FF020EDBCF00F0030EDBCF3D
:104A800001F0040EDBCF02F0050EDBCF03F0060EC3
:104A9000DBCF04F0070EDBCF05F0080EDBCF06F00E
:104AA000090EDBCF07F0D88003AED890086A08362D
:104AB00008500FE0031C0C6E021C0B6E011C0A6EEA
:104AC000001C096E092A0DE10A2A0BE10B4A0C2A87
:104AD00008D000C009F001C00AF002C00BF003C00A
:104AE0000CF0D88007AED8900FE3071C036E061CAD
:104AF000026E051C016E041C006E002A0DE1012AE5
:104B00000BE1024A032A08D004C000F005C001F0FE
:104B100006C002F007C003F00350E56E0250E56ED8
:104B20000150E56E0050E56E0C50E56E0B50E56EE1
:104B30000A50E56E0950E56E0EEC28F0006EF3CFDA
:104B400001F0F4CF02F0E9CF03F0080EE12608509F
:104B500016E0031C076E021C066E011C056E001C8D
:104B6000046E042A04E1052A02E1064A072A07C066
:104B7000E9FF06C0F4FF05C0F3FF045007D003C0EF
:104B8000E9FF02C0F4FF01C0F3FF0050E4CF0CF0D6
:104B9000E4CF0BF0E4CF0AF0E4CF09F0E4CF08F063
:104BA000E4CF07F0E4CF06F0E4CF05F0E4CF04F063
:104BB000E4CF03F0E4CF02F0E4CF01F0E4CF00F063
:104BC000E4CFD9FF1200D9CFE5FFE1CFD9FF00C074
:104BD000E5FF01C0E5FF02C0E5FF03C0E5FF04C03B
:104BE000E5FF05C0E5FF06C0E5FF07C0E5FF08C01B
:104BF000E5FF09C0E5FF0AC0E5FF0BC0E5FF0CC0FB
:104C0000E5FF0DC0E5FF0EC0E5FF020EDBCF00F0B3
:104C1000030EDBCF01F0040EDBCF02F0050EDBCF7D
:104C200003F0060EDBCF04F0070EDBCF05F0080E15
:104C3000DBCF06F00050080F076E000E0120086E53
:104C4000000E022007C0E9FF08C0F3FF4EEC39F068
:104C5000076EF3CF08F0F4CF09F0E9CF0AF008109F
:104C600009100A102AE003500B6E04500C6E055018
:104C70000D6E06500E6E07500B2608500C22095080
:104C80000D220A500E22E56E0950E56E0850E56EC1
:104C90000750E56E0E50E56E0D50E56E0C50E56E5A
:104CA0000B50E56E0EEC28F0036EF3CF04F0F4CF5A
:104CB00005F0E9CF06F0080EE12603C0E5FF04C0C9
:104CC000F4FF05C0F6FF06C0F7FF00C0E9FF01C012
:104CD000F3FF025005EC3BF0040E0026000E01220B
:104CE000022205500A6E0450096E0350086EE56AF0
:104CF00008C0F4FF09C0F6FF0AC0F7FF00C0E9FFD3
:104D000001C0F3FF025005EC3BF0E4CF0EF0E4CF1E
:104D10000DF0E4CF0CF0E4CF0BF0E4CF0AF0E4CFD9
:104D200009F0E4CF08F0E4CF07F0E4CF06F0E4CFD9
:104D300005F0E4CF04F0E4CF03F0E4CF02F0E4CFD9
:104D400001F0E4CF00F0E4CFD9FF1200D9CFE5FFA6
:104D5000E1CFD9FF00C0E5FF01C0E5FF02C0E5FFDC
:104D600003C0E5FF04C0E5FF05C0E5FF06C0E5FFA1
:104D700007C0E5FF08C0E5FF09C0E5FF0AC0E5FF81
:104D80000BC0E5FF0CC0E5FF0DC0E5FF0EC0E5FF61
:104D9000020EDBCF00F0030EDBCF01F0040EDBCF01
:104DA00002F0050EDBCF03F0060EDBCF04F0070E9A
:104DB000DBCF05F0080EDBCF06F000C0E9FF01C035
:104DC000F3FF02504EEC39F0F3CF08F0F4CF09F0C6
:104DD000E9CF0AF0032608500422095005220A50A0
:104DE00006220050080F076E000E0120086E000E0C
:104DF000022007C0E9FF08C0F3FF4EEC39F0076E50
:104E0000F3CF08F0F4CF09F0E9CF0AF00810091049
:104E10000A102AE003500B6E04500C6E05500D6E04
:104E200006500E6E07500B2608500C2209500D221A
:104E30000A500E22E56E0950E56E0850E56E0750E7
:104E4000E56E0E50E56E0D50E56E0C50E56E0B50A4
:104E5000E56E0EEC28F0036EF3CF04F0F4CF05F00E
:104E6000E9CF06F0080EE12603C0E5FF04C0F4FF19
:104E700005C0F6FF06C0F7FF00C0E9FF01C0F3FF61
:104E8000025005EC3BF0E4CF0EF0E4CF0DF0E4CFA0
:104E90000CF0E4CF0BF0E4CF0AF0E4CF09F0E4CF5C
:104EA00008F0E4CF07F0E4CF06F0E4CF05F0E4CF5C
:104EB00004F0E4CF03F0E4CF02F0E4CF01F0E4CF5C
:104EC00000F0E4CFD9FF1200D9CFE5FFE1CFD9FF41
:104ED00000C0E5FF01C0E5FF02C0E5FF03C0E5FF3C
:104EE00004C0E5FF05C0E5FF06C0E5FF07C0E5FF1C
:104EF00008C0E5FF09C0E5FF0AC0E5FF0BC0E5FFFC
:104F00000CC0E5FF0DC0E5FF0EC0E5FF020EDBCFD4
:104F100000F0030EDBCF01F0040EDBCF02F0050E34
:104F2000DBCF03F0060EDBCF04F0070EDBCF05F07E
:104F3000080EDBCF06F00050080F076E000E0120B0
:104F4000086E000E022007C0E9FF08C0F3FF4EEC18
:104F500039F0076EF3CF08F0F4CF09F0E9CF0AF08B
:104F6000081009100A102AE003500B6E04500C6E52
:104F700005500D6E06500E6E07500B2608500C2281
:104F800009500D220A500E22E56E0950E56E0850B8
:104F9000E56E0750E56E0E50E56E0D50E56E0C5057
:104FA000E56E0B50E56E0EEC28F0036EF3CF04F0C7
:104FB000F4CF05F0E9CF06F0080EE12603C0E5FFC7
:104FC00004C0F4FF05C0F6FF06C0F7FF00C0E9FF0C
:104FD00001C0F3FF025005EC3BF0E4CF0EF0E4CF4C
:104FE0000DF0E4CF0CF0E4CF0BF0E4CF0AF0E4CF07
:104FF00009F0E4CF08F0E4CF07F0E4CF06F0E4CF07
:1050000005F0E4CF04F0E4CF03F0E4CF02F0E4CF06
:1050100001F0E4CF00F0E4CFD9FF1200D9CFE5FFD3
:10502000E1CFD9FF00C0E5FF01C0E5FF02C0E5FF09
:1050300003C0E5FF04C0E5FF05C0E5FF06C0E5FFCE
:1050400007C0E5FF08C0E5FF09C0E5FF0AC0E5FFAE
:10505000020EDBCF00F0030EDBCF01F0040EDBCF3E
:1050600002F0050EDBCF03F0060EDBCF04F0070ED7
:10507000DBCF05F0080EDBCF06F0090EDBCF07F023
:10508000086A045005100610071005E1E968F46885
:10509000F368E86847D0096A0750800BE8440A6E55
:1050A0000A501BE104500426053606360736075021
:1050B000035C08E10650025C05E10550015C02E179
:1050C0000450005C06E2D890073206320532043202
:1050D00004D0092A09C008F0DFD70750035C08E1B3
:1050E0000650025C05E10550015C02E10450005CE1
:1050F00008E30450005E0550015A0650025A07505A
:10510000035AD890073206320532043208C009F03B
:1051100008060950E2E103C0E9FF02C0F4FF01C044
:10512000F3FF0050E4CF0AF0E4CF09F0E4CF08F039
:10513000E4CF07F0E4CF06F0E4CF05F0E4CF04F0CD
:10514000E4CF03F0E4CF02F0E4CF01F0E4CF00F0CD
:10515000E4CFD9FF1200D9CFE5FFE1CFD9FF00C0DE
:10516000E5FF01C0E5FF02C0E5FF03C0E5FF04C0A5
:10517000E5FF05C0E5FF06C0E5FF07C0E5FF020E3D
:10518000DBCF00F0030EDBCF01F0040EDBCF02F02B
:1051900000500B0F036E000E0120046E000E022063
:1051A000E56AF46AF66AF76A03C0E9FF04C0F3FF30
:1051B00005EC3BF00050070F036E000E0120046E5B
:1051C000000E0220056E0050030F066E000E012037
:1051D000076E000E0220E56AF46AF66AF76A06C0F6
:1051E000E9FF07C0F3FF05EC3BF0E56AF46AF66AF5
:1051F000F76A03C0E9FF04C0F3FF055005EC3BF07C
:105200000050010F036E000E0120046E000E0220FC
:10521000056E0050020F066E000E0120076E000E94
:105220000220E56A06C0E9FF07C0F3FFA8EC3BF0E7
:10523000E56A03C0E9FF04C0F3FF0550A8EC3BF0AA
:10524000E56A00C0E9FF01C0F3FF0250A8EC3BF0A3
:10525000E4CF07F0E4CF06F0E4CF05F0E4CF04F0AC
:10526000E4CF03F0E4CF02F0E4CF01F0E4CF00F0AC
:10527000E4CFD9FF120025642025640A0000D9CFAD
:10528000E5FFE1CFD9FF00C0E5FF01C0E5FF02C0A7
:10529000E5FF03C0E5FF04C0E5FF05C0E5FF06C06C
:1052A000E5FF07C0E5FF08C0E5FF09C0E5FF0AC04C
:1052B000E5FF020EDBCF00F0030EDBCF01F0040EA2
:1052C000DBCF02F0050EDBCF03F0060EDBCF04F0E0
:1052D000070EDBCF05F00038E8441F0B066E076AA7
:1052E000880E0626050E072206C0E9FF07C0EAFF62
:1052F000EFCF08F00050096E070E0916010E0A6E76
:1053000009500DE006E6E86CD8900A36010FFDE37F
:1053100006D0D8900ABED8800A32010FFBE30850AD
:105320000A1206C0E9FF07C0EAFF0AC0EFFF160E27
:105330000024066E076A050E072206C0E9FF07C0B3
:10534000EAFF01C0EFFF016AF00E0026040E012201
:10535000800E025E070E02160238F00B036E070E77
:1053600005160550032600C0E9FF01C0EAFF03C08F
:10537000EFFFE4CF0AF0E4CF09F0E4CF08F0E4CF88
:1053800007F0E4CF06F0E4CF05F0E4CF04F0E4CF7B
:1053900003F0E4CF02F0E4CF01F0E4CF00F0E4CF7B
:1053A000D9FF120000C0E5FF01C0E5FF02C0E5FF24
:1053B00003C0E5FF050199510501981901E166D087
:1053C00099C500F0002A009E016A600E0026000EBA
:1053D000012200C0E9FF01C0EAFFEFCFA3F51F0ED5
:1053E0000501A31799C5A2F5A3510501A227A25152
:1053F000006E020E0024A26FA29F65EC38F0006ED2
:10540000005003E1006A002A01D0006A65EC38F020
:105410000501A36FA3C501F0800E0116A3C502F01C
:105420001F0E021602C003F002C0A3F5035003E1F1
:1054300098C599F53ED000501EE0015025E065EC7E
:1054400038F0006E0501A351026E0204A36F0050F4
:10545000420A1AE000504E0A03E1B9EC36F014D0CB
:105460000050460A03E192EC3BF00ED00050490A8E
:105470000BE1FF0009D099C5A4F5015003E0E4EC6D
:1054800033F002D027EC3BF0A2C599F50401165188
:105490000401171906E005019A5103E10BEC2CF009
:1054A00008D092BC06D005019A5103E172B253ECC8
:1054B0003BF0E4CF03F0E4CF02F0E4CF01F0E4CF1F
:1054C00000F01200D9CFE5FFE1CFD9FF00C0E5FF22
:1054D00001C0E5FF02C0E5FF03C0E5FF04C0E5FF32
:1054E00005C0E5FF06C0E5FF07C0E5FF08C0E5FF12
:1054F00009C0E5FF0AC0E5FF0BC0E5FF0CC0E5FFF2
:105500000DC0E5FF020EDBCF00F0030EDBCF01F094
:10551000040EDBCF02F0050EDBCF03F0060EDBCF6F
:1055200004F0070EDBCF05F0080EDBCF06F0090E06
:10553000DBCF07F0086A096A0A6A0B6A200E0C6E54
:105540000350800BE8440D6E0050002601360236F1
:1055500003360850082609360A360B360D50D8A4F3
:10556000088007500B5C08E106500A5C05E1055015
:10557000095C02E10450085C09E30450085E055030
:10558000095A06500A5A07500B5A00800C040D6E37
:105590000DC00CF00D50D4E103C0E9FF02C0F4FFD0
:1055A00001C0F3FF0050E4CF0DF0E4CF0CF0E4CFE6
:1055B0000BF0E4CF0AF0E4CF09F0E4CF08F0E4CF39
:1055C00007F0E4CF06F0E4CF05F0E4CF04F0E4CF39
:1055D00003F0E4CF02F0E4CF01F0E4CF00F0E4CF39
:1055E000D9FF120000C0E5FF01C0E5FF03C0E5FFE1
:1055F00004C0E5FF05C0E5FF06C0E5FF07C0E5FF05
:1056000008C0E5FF09C0E5FF0AC0E5FF0BC0E5FFE4
:1056100086C500F087C501F00501863F01D0872BC4
:105620000050E56E45EC3BF0E652076E046A056AF1
:10563000066A86C500F087C501F00501863F01D0E6
:10564000872B0050E56E45EC3BF0E6520B6A0A6E84
:10565000086A0850041205120A5006120B5007126D
:1056600086C500F087C501F00501863F01D0872B74
:105670000050E56E45EC3BF0E652036E006A03C055
:1056800001F0E86A03BEFF0E086E096E00500412B6
:1056900001500512085006120950071286C500F085
:1056A00087C501F00501863F01D0872B0050E56ECC
:1056B00045EC3BF0E652016A041201500512061255
:1056C000071207C0E9FF06C0F4FF05C0F3FF04504E
:1056D000E4CF0BF0E4CF0AF0E4CF09F0E4CF08F018
:1056E000E4CF07F0E4CF06F0E4CF05F0E4CF04F018
:1056F000E4CF03F0E4CF01F0E4CF00F01200D9CF03
:10570000E5FFE1CFD9FF00C0E5FF01C0E5FF02C022
:10571000E5FF03C0E5FF04C0E5FF05C0E5FF06C0E7
:10572000E5FF07C0E5FF020EDBCF00F0030EDBCF85
:1057300001F0040EDBCF02F0050EDBCF03F002C058
:1057400006F00650046E800A33E100C0E9FF01C094
:10575000F3FF0250C8EC39F0056EF3CF06F0F4CF3A
:1057600007F003C0E5FF05C0E9FF06C0F3FF0750DF
:10577000A8EC3BF000C0E9FF01C0F3FF0250C8EC09
:1057800039F0056EF3CF06F0F4CF07F0052A02E3F7
:10579000064A072A05C0E5FF06C0F4FF07C0F6FF6A
:1057A00000C0E9FF01C0F3FF025036EC3BF020D00F
:1057B00004C000F000AA1CD0007A0050046E04E17E
:1057C0000350E5EC3BF014D00450010A04E103500F
:1057D00002EC00F00DD004500F0A04E103500BEC72
:1057E00038F006D004500E0A03E10350F5EC3BF00C
:1057F000E4CF07F0E4CF06F0E4CF05F0E4CF04F007
:10580000E4CF03F0E4CF02F0E4CF01F0E4CF00F006
:10581000E4CFD9FF120000C0E5FF01C0E5FF02C0E0
:10582000E5FF03C0E5FF72A277D06EEC39F0006EA1
:10583000005005E10401176B0401166B6DD017C40D
:1058400001F0005001266EEC39F0026E00060250A5
:10585000230A1FE1010E005CD8A05CD06EEC39F089
:10586000036E690A03E1DAEC37F054D00350720A90
:1058700003E153EC3BF04ED00350730A01E04AD0F1
:10588000928C7186A38AA398745074507198718811
:1058900041D00250430A05E00250420A01E03AD0EA
:1058A00001D0008E05019C6B00C09DF500500F01DA
:1058B000006F05019C2B04011751011814E06EECD8
:1058C00039F0006E05019D27000E05019C25026E32
:1058D000036A0F0E032202C0E9FF03C0EAFF00C003
:1058E000EFFF9C2BE8D7000E05019C25006E026A95
:1058F0000F0E022205019D1D036E032A00C0E9FF61
:1059000002C0EAFF03C0EFFF05019C2B9CC59AF57E
:105910000501946B01C017F4E4CF03F0E4CF02F06B
:10592000E4CF01F0E4CF00F01200D9CFE5FFE1CFE2
:10593000D9FF00C0E5FF01C0E5FF02C0E5FF03C0DD
:10594000E5FF04C0E5FF05C0E5FF06C0E5FF020E68
:10595000DBCF00F0030EDBCF01F0040EDBCF02F053
:10596000050EDBCF03F003C004F0056A0350D8B482
:1059700053D000C0E9FF01C0F3FF025016EC3BF02A
:10598000066E430A03E1010E056E038E0406002A2B
:1059900002E3014A022AA39A7198929CA398A4A8B0
:1059A000FED77280736A0000A4A8FED7729003C06D
:1059B00073FF0000A4A8FED7055005E0420E736EE9
:1059C0000324056E05D0620E736E620E0324056E0D
:1059D00004C003F0035015E00000A4A8FED700C0E7
:1059E000E9FF01C0F3FF025016EC3BF0046E04C067
:1059F00073FF045005260306002A02E3014A022A27
:105A0000E9D70000A4A8FED7051C736E732A000016
:105A1000A4A8FED753EC3BF0E4CF06F0E4CF05F0AA
:105A2000E4CF04F0E4CF03F0E4CF02F0E4CF01F0E0
:105A3000E4CF00F0E4CFD9FF120000C0E5FF01C0C1
:105A4000E5FF02C0E5FF03C0E5FF04C0E5FF006A13
:105A5000880E0024016E026A050E022201C0E9FFD1
:105A600002C0EAFFEF6A002A020E005CF1E3006A5E
:105A70000050020DF450026EF3CF01F0E00E01244D
:105A8000036E000E0220046E03C0E9FF04C0EAFFAB
:105A9000EE6AEF6A5C0E0124036E040E0220046EAF
:105AA00003C0E9FF04C0EAFFEE6AEF6A5D0E01245D
:105AB000036E030E0220046E03C0E9FF04C0EAFF78
:105AC000EE6AEF6A7D0E0124036E030E0220046E5F
:105AD00003C0E9FF04C0EAFFEE6AEF6A9D0E0126EB
