:020000040000FA
:1000000096EF34F0C96E12008EEF2DF09BEC1BF0D2
:100010004CEC19F0FDD71200F3EF32F0D9CFE5FF29
:10002000E1CFD9FF00C0E5FF01C0E5FF02C0E5FF59
:1000300003C0E5FF04C0E5FF05C0E5FF06C0E5FF1E
:1000400007C0E5FF08C0E5FF09C0E5FF0AC0E5FFFE
:100050000BC0E5FF0CC0E5FF0DC0E5FF0EC0E5FFDE
:100060000FC0E5FF10C0E5FF11C0E5FF12C0E5FFBE
:1000700013C0E5FF14C0E5FF15C0E5FF16C0E5FF9E
:1000800017C0E5FF18C0E5FF19C0E5FF1AC0E5FF7E
:100090001BC0E5FF1CC0E5FF1DC0E5FF1EC0E5FF5E
:1000A0001FC0E5FF20C0E5FF21C0E5FF22C0E5FF3E
:1000B00023C0E5FF020EDBCF00F0030EDBCF01F023
:1000C000040EDBCF02F00250086E0150076E0050A4
:1000D000066EE56A100EE56E0850E56E0750E56E97
:1000E0000650E56E800EE56E050EE56E100EE56EAF
:1000F000A5EC26F0080EE12618C503F019C504F09A
:100100001AC505F01BC506F003C007F004C008F0CF
:1001100005C009F006C00AF0D8800AAED8900AE3FC
:100120000A1E091E081E076C05E1082A03E1092AB8
:10013000D8B40A2A10C50BF011C50CF0E86A050105
:1001400011BFFF0E0D6E0E6E13510F6E1451106E17
:100150001551116E126A11BE12680F500B5C0F6EB2
:1001600010500C58106E11500D58116E12500E5840
:10017000126E800F810F08E1FF0E115C05E1FF0E8A
:10018000105C02E1FD0E0F5CD8A040D01250800F31
:10019000800F08E1000E115C05E1000E105C02E129
:1001A000040E0F5C33E20A340A30166E0930156E05
:1001B0000830146E0730136E1EC517F01FC518F0F7
:1001C000E86A05011FBFFF0E196E800FF36E16500F
:1001D000800FF35C08E11550195C05E11450185CC0
:1001E00002E11350175C12E30D50166E0C50156EA1
:1001F0000B500501126B136F1550146F1650156FCD
:10020000186B196B1A6B1B6B29EF04F00A340A3058
:100210000E6A09300C6E08300B6E0850076E0950DC
:10022000086EE86A0CBEFF0E096E0A6EE86A08BE28
:10023000FF0E0D6EE56E0D50E56E0850E56E075031
:10024000E56E0A50E56E0950E56E0C50E56E0B50F8
:10025000E56EAEEC1CF0076EF3CF08F0F4CF09F0BA
:10026000E9CF0AF0080EE1261EC50BF01FC50CF001
:10027000E86A05011FBFFF0E0D6E0E6EE56E0D5094
:10028000E56E0C50E56E0B50E56E0A50E56E0950B8
:10029000E56E0850E56E0750E56E7BEC1FF0076ECB
:1002A000F3CF08F0080EE12616C509F017C50AF0CD
:1002B000E86A050117BFFF0E136E186E0A50176E1D
:1002C0000950166E156AD88006AED890D8B047D1BE
:1002D00007C009F008C00AF0E86A08BEFF0E136EF6
:1002E000800FF36E1250800FF35C08E11150135C25
:1002F00005E110500A5C02E10F50095CD8B007D14B
:100300000650800FF36E1850800FF35C08E1175011
:10031000055C05E11650045C02E11550035CD8B0A1
:10032000CFD01CC509F01DC50AF0E86A05011DBF44
:10033000FF0E136E146E0350092604500A22055056
:1003400013220650142209500501186F0A50196F24
:1003500013501A6F14501B6F1EC509F01FC50AF009
:100360001CC513F01DC514F00A50800FF36E145015
:10037000800FF35C02E11350095CD8B085D018C53A
:1003800019F019C51AF01AC51BF01BC51CF01C3456
:100390001C30206A1B301E6E1A301D6E1A501F6EE4
:1003A0001B50206EE86A1EBEFF0E216E226EE86AA8
:1003B00020BEFF0E236EE56E2350E56E2050E56EE5
:1003C0001F50E56E2250E56E2150E56E1E50E56E21
:1003D0001D50E56EAEEC1CF01D6EF3CF1EF0F4CF99
:1003E0001FF0E9CF20F0080EE12609C021F00AC075
:1003F00022F0E86A0ABEFF0E236EE56E2350E56E1A
:100400002250E56E2150E56E2050E56E1F50E56EDE
:100410001E50E56E1D50E56E7BEC1FF01D6EF3CF98
:100420001EF0080EE126E86A1EBEFF0E1F6E206E4B
:100430001250800FF36E2050800FF35C08E11F50C4
:10044000115C05E11E50105C02E11D500F5C1CE2C6
:100450000950135C096E0A5014580A6EE86A0ABE05
:10046000FF0E136E146E0950195E0A501A5A13507B
:100470001B5A14501C5A19500501186F1A50196F45
:100480001B501A6F1C501B6F1850800FF36E050124
:100490001B51800FF35C08E11A51175C05E11951FB
:1004A000165C02E11851155CD8B0B9D115500501A0
:1004B000186F1650196F17501A6F18501B6FAFD165
:1004C0001850800FF36E0650800FF35C08E1055062
:1004D000175C05E10450165C02E10350155CD8B0CE
:1004E0009ED10B50035C096E0C5004580A6E0D50DF
:1004F0000558136E0E500658146E09500501186FFA
:100500000A50196F13501A6F14501B6F88D11CC5F5
:1005100009F01DC50AF0E86A05011DBFFF0E136E44
:10052000146E0B5009260C500A220D5013220E5047
:1005300014220950035C096E0A5004580A6E1350C5
:100540000558136E14500658146E09500501186FA3
:100550000A50196F13501A6F14501B6F60D1081E88
:10056000076CD8B4082AE86A08BEFF0E096E0A6E46
:100570001250800FF36E0A50800FF35C08E10950AF
:10058000115C05E10850105C02E107500F5CD8B027
:1005900023D1181C0A6E171C096E161C086E151C38
:1005A000076E072A04E1082A02E1094A0A2A0A50CA
:1005B000800FF36E0650800FF35C08E10550095C74
:1005C00005E10450085C02E10350075CD8B0DDD0BF
:1005D0001CC513F01DC514F0E86A05011DBFFF0E10
:1005E000156E166E1350035C136E14500458146E7F
:1005F00015500558156E16500658166E1350050105
:10060000186F1450196F15501A6F16501B6F1EC5B6
:1006100013F01FC514F01CC515F01DC516F01450BD
:10062000800FF36E1650800FF35C02E11550135CDF
:10063000D8B08FD018C517F019C518F01AC519F021
:100640001BC51AF01A341A301E6A19301C6E183085
:100650001B6E1C1E1B6CD8B41C2A18501D6E195022
:100660001E6E1E1E1D6CD8B41E2AE86A1CBEFF0E2C
:100670001F6E206EE86A1EBEFF0E216EE56E2150D1
:10068000E56E1E50E56E1D50E56E2050E56E1F5064
:10069000E56E1C50E56E1B50E56EAEEC1CF01B6E5B
:1006A000F3CF1CF0F4CF1DF0E9CF1EF0080EE126C9
:1006B00013C01FF014C020F0E86A14BEFF0E216EB4
:1006C000E56E2150E56E2050E56E1F50E56E1E5020
:1006D000E56E1D50E56E1C50E56E1B50E56E7BEC23
:1006E0001FF01B6EF3CF1CF0080EE1261C1E1B6CC6
:1006F000D8B41C2AE86A1CBEFF0E1D6E800FF36E74
:100700001250800FF35C08E111501D5C05E11050A0
:100710001C5C02E10F501B5C1CE21350155C136E55
:1007200014501658146EE86A14BEFF0E0F6E106E49
:1007300013501726145018220F50192210501A2245
:1007400017500501186F1850196F19501A6F1A5069
:100750001B6F05011B51800FF36E0A50800FF35C75
:1007600008E109501A5D05E10850195D02E10750E2
:10077000185DD8B054D007500501186F0850196F94
:1007800009501A6F0A501B6F4AD00650800FF36E43
:100790000A50800FF35C08E10950055C05E1085040
:1007A000045C02E10750035CD8B039D00B5003243D
:1007B000076E0C500420086E0D500520096E0E5077
:1007C00006200A6E07500501186F0850196F09506E
:1007D0001A6F0A501B6F23D01CC507F01DC508F007
:1007E000E86A05011DBFFF0E096E0A6E07500B2651
:1007F00008500C2209500D220A500E220B500326DD
:100800000C5004220D5005220E5006220350050103
:10081000186F0450196F05501A6F06501B6F0501B1
:100820001951036E1A51046E1B51056E066A05BEFE
:100830000668125103261351042214510522155142
:1008400006220350126F0450136F0550146F0650A8
:10085000156FE56A100EE56E800EE56E050EE56E0D
:10086000100EE56E0250E56E0150E56E0050E56E2B
:10087000A5EC26F0080EE126E4CF23F0E4CF22F029
:10088000E4CF21F0E4CF20F0E4CF1FF0E4CF1EF05E
:10089000E4CF1DF0E4CF1CF0E4CF1BF0E4CF1AF05E
:1008A000E4CF19F0E4CF18F0E4CF17F0E4CF16F05E
:1008B000E4CF15F0E4CF14F0E4CF13F0E4CF12F05E
:1008C000E4CF11F0E4CF10F0E4CF0FF0E4CF0EF05E
:1008D000E4CF0DF0E4CF0CF0E4CF0BF0E4CF0AF05E
:1008E000E4CF09F0E4CF08F0E4CF07F0E4CF06F05E
:1008F000E4CF05F0E4CF04F0E4CF03F0E4CF02F05E
:10090000E4CF01F0E4CF00F0E4CFD9FF1200D9CF5B
:10091000E5FFE1CFD9FF00C0E5FF01C0E5FF02C060
:10092000E5FF03C0E5FF04C0E5FF05C0E5FF06C025
:10093000E5FF07C0E5FF08C0E5FF09C0E5FF0AC005
:10094000E5FF0BC0E5FF0CC0E5FF0DC0E5FF0EC0E5
:10095000E5FF0FC0E5FF10C0E5FF11C0E5FF12C0C5
:10096000E5FF13C0E5FF14C0E5FF15C0E5FF16C0A5
:10097000E5FF17C0E5FF18C0E5FF19C0E5FF1AC085
:10098000E5FF1BC0E5FF1CC0E5FF1DC0E5FF1EC065
:10099000E5FF020EDBCF00F0030EDBCF01F0040E0B
:1009A000DBCF02F0050EDBCF03F0060EDBCF04F049
:1009B000070EDBCF05F0080EDBCF06F0090EDBCF0C
:1009C00007F00A0EDBCF08F0096A0A6A02C00DF0D0
:1009D0000D50800A0DE102500501656F0150646FF2
:1009E0000050636F050E016E630E006E800E026E86
:1009F00003C0E9FF04C0F3FF0550E0EC34F00B6ED8
:100A00000B50D8B43DEF08F00B50250A02E024EF5C
:100A100008F00C6A0D6A0E6A0F6A106A0A0E116EEF
:100A2000126A136A146A200E156E1668176A2B0E66
:100A3000186E032A02E3044A052A03C0E9FF04C032
:100A4000F3FF0550E0EC34F0196E250A13E119505C
:100A5000E56E0250E56E0150E56E0050E56E84ECE7
:100A600024F0040EE126094A0A2A032A02E3044A72
:100A7000052ABED71950300A06E1300E156E032A3A
:100A800002E3044A052A03C0E9FF04C0F3FF05504E
:100A9000E0EC34F02D0A06E1010E146E032A02E3A5
:100AA000044A052A03C0E9FF04C0F3FF0550E0EC47
:100AB00034F0200A08E1010E176E200E186E032A8A
:100AC00002E3044A052A03C0E9FF04C0F3FF05500E
:100AD000E0EC34F02B0A06E1010E176E032A02E364
:100AE000044A052A03C0E9FF04C0F3FF0550E0EC07
:100AF00034F0196E310E195C2BE33A0E195C28E2C2
:100B000003C019F004C01AF005C01BF019C0E9FFBA
:100B10001AC0F3FF1B50E0EC34F01C6E300E1C5C6E
:100B200011E33A0E1C5C0EE213500A0DF3CF1DF0D8
:100B30001C501D26D00E1D24136E192A02E31A4ADA
:100B40001B2AE4D719C003F01AC004F01BC005F03B
:100B500003C0E9FF04C0F3FF0550E0EC34F02E0AB7
:100B60002DE1032A02E3044A052A166A03C019F09C
:100B700004C01AF005C01BF019C0E9FF1AC0F3FF4A
:100B80001B50E0EC34F01C6E300E1C5C11E33A0E8E
:100B90001C5C0EE216500A0DF3CF1DF01C501D26F2
:100BA000D00E1D24166E192A02E31A4A1B2AE4D716
:100BB00019C003F01AC004F01BC005F003C0E9FF20
:100BC00004C0F3FF0550E0EC34F0196E6C0A07E145
:100BD000010E0C6E032A02E3044A052A09D01950BB
:100BE000680A06E1010E0E6E032A02E3044A052A92
:100BF00003C0E9FF04C0F3FF0550E0EC34F0750AD0
:100C000006E1010E106E032A02E3044A052A03C01E
:100C1000E9FF04C0F3FF0550E0EC34F0196E730AED
:100C200005E1010E0D6E200E156E3FD01950780AA9
:100C300003E1100E116E39D01950580A05E1100E5B
:100C4000116E010E126E31D01950630A02E1116A61
:100C50002CD019506F0A03E1080E116E26D01950DE
:100C6000660A03E1010E0F6E20D01950640A1DE0E0
:100C70001950690A1AE0105005E0FF0E03260422FD
:100C8000052213D01950E56E0250E56E0150E56E55
:100C90000050E56E84EC24F0040EE126094A0A2A8D
:100CA000032A02E3044A052AA3D60D5021E0065088
:100CB000030F0D6E000E0720196E000E08201A6E2D
:100CC0000DC006F019C007F01AC008F0FD0E0D2681
:100CD000FF0E19221A220DC0E9FF19C0F3FF1A50A6
:100CE00092EC33F00D6EF3CF19F0F4CF1AF0FDD083
:100CF0000F500DE0000E1A6E110E196E020E0D6EE1
:100D0000040E0626000E072208221668EED016688A
:100D10000C5023E00650040F0C6E000E07200F6EDF
:100D2000000E08201B6E0CC006F00FC007F01BC0A1
:100D300008F0FC0E0C26FF0E0F221B220CC0E9FF50
:100D40000FC0F3FF1B5018EC33F00C6EF3CF0FF015
:100D5000F4CF1BF0E9CF1CF067D00E502FE0065007
:100D6000020F0E6E000E07201D6E000E08201E6E74
:100D70000EC006F01DC007F01EC008F0FE0E0E26C5
:100D8000FF0E1D221E220EC0E9FF1DC0F3FF1E50E4
:100D90006AEC34F00E6E0EC00CF00F6A1B6A1C6A0F
:100DA00011500A0A03E11050D8B43ED00C500E6E18
:100DB0000EC00CF00F6A1B6A1C6A36D00650020F78
:100DC0000E6E000E07201D6E000E08201E6E0EC057
:100DD00006F01DC007F01EC008F0FE0E0E26FF0E26
:100DE0001D221E220EC0E9FF1DC0F3FF1E506AEC3B
:100DF00034F00E6EF3CF1DF00EC00CF01DC00FF0DE
:100E0000E86A1DBEFF0E1B6E1C6E11500A0A02E13D
:100E100010500AE00C500E6E0F501D6E0EC00CF0FC
:100E20001DC00FF01B6A1C6A050E196E3B0E0D6E7D
:100E3000800E1A6E1150D8B440D0105013E01150EB
:100E4000E56E050EE56E3B0EE56E1C50E56E1B5023
:100E5000E56E0F50E56E0C50E56E9FEC1EF0070E30
:100E6000E12612D01150E56E050EE56E3B0EE56EE3
:100E70001C50E56E1B50E56E0F50E56E0C50E56E94
:100E8000B2EC2AF0070EE12617502FE00DC0E9FF63
:100E900019C0F3FF1A50E0EC34F02D0A26E0FF0EE3
:100EA0000D2619221A2218C0E5FF0DC0E9FF19C04E
:100EB000F3FF1A5072EC35F018D00CC0E5FF0DC0EE
:100EC000E9FF19C0F3FF1A5072EC35F00D50010F15
:100ED0000C6E000E19200E6E000E1A20E56A0CC072
:100EE000E9FF0EC0F3FF72EC35F00DC00CF019C035
:100EF0000EF01AC00FF013C010F0105010E00CC02C
:100F0000E9FF0EC0F3FF0F50E0EC34F0176E1750FE
:100F100006E00C2A02E30E4A0F2A1006EED710C094
:100F200013F014501EE109C00CF00AC00EF010C0FE
:100F30000FF00F5010E01550E56E0250E56E0150B5
:100F4000E56E0050E56E84EC24F0040EE1260C4AB8
:100F50000E2A0F06EED70CC009F00EC00AF00FC023
:100F600013F016C00CF00DC00DF019C00EF01AC031
:100F70000FF009C010F00AC015F00DC0E9FF0EC057
:100F8000F3FF0F50E0EC34F0166E1650D8B43ED09C
:100F90000CC016F0176A161E171E1650171005E023
:100FA0000CC016F00C06165031E00DC0E9FF0EC063
:100FB000F3FF0F50E0EC34F0116E125010E01150BE
:100FC000E56E27EC34F0166EE652165004E0DF0EA4
:100FD0001114166E02D011C016F016C011F0115087
:100FE000E56E0250E56E0150E56E0050E56E84EC52
:100FF00024F0040EE1260D2A02E30E4A0F2A104ABD
:10100000152A1350D8B4B9D71306B7D710C009F0B2
:1010100015C00AF014502BE010C00CF015C00DF0F4
:1010200013C00EF00E501FE0200EE56E0250E56E6C
:101030000150E56E0050E56E84EC24F0040EE126CC
:101040000C4A0D2A0E06EED70B50E56E0250E56EE7
:101050000150E56E0050E56E84EC24F0040EE126AC
:10106000094A0A2A04D00CC009F00DC00AF0032A6C
:1010700002E3044A052AF8EF04F00AC0F3FF09501E
:10108000E4CF1EF0E4CF1DF0E4CF1CF0E4CF1BF062
:10109000E4CF1AF0E4CF19F0E4CF18F0E4CF17F062
:1010A000E4CF16F0E4CF15F0E4CF14F0E4CF13F062
:1010B000E4CF12F0E4CF11F0E4CF10F0E4CF0FF062
:1010C000E4CF0EF0E4CF0DF0E4CF0CF0E4CF0BF062
:1010D000E4CF0AF0E4CF09F0E4CF08F0E4CF07F062
:1010E000E4CF06F0E4CF05F0E4CF04F0E4CF03F062
:1010F000E4CF02F0E4CF01F0E4CF00F0E4CFD9FF79
:1011000012003C4E4F20464C4F41543E0000D9CF78
:10111000E5FFE1CFD9FF00C0E5FF01C0E5FF02C058
:10112000E5FF03C0E5FF04C0E5FF05C0E5FF06C01D
:10113000E5FF07C0E5FF08C0E5FF09C0E5FF0AC0FD
:10114000E5FF0BC0E5FF0CC0E5FF0DC0E5FF020E9B
:10115000DBCF00F0030EDBCF01F0040EDBCF02F09B
:101160000050090F066E000E0120076E000E0220CF
:10117000086E0B6E07500A6E0650096EE56A0D0E7A
:10118000E56E0B50E56E0A50E56E0950E56E800E77
:10119000E56E050EE56E200EE56EA5EC26F0080E58
:1011A000E12600C009F001C00AF002C00BF0E56AB8
:1011B000E56E0B50E56E0A50E56E0950E56E800E47
:1011C000E56E040EE56E810EE56EA5EC26F0080EC8
:1011D000E12681C403F00350010A04E00350030A2E
:1011E00001E013D1050128510501355D0501706F3E
:1011F00005012951050136590501716F0501355168
:101200000501286F050136510501296F0501375188
:1012100005012A6F0501385105012B6F0501705139
:101220007111D8A47ED0DAEC31F0036EF3CF04F064
:10123000F4CF05F0E9CF09F005012D510A6E2E51CA
:101240000B6E2F510C6E30510D6E0A50035E0B5019
:10125000045A0C50055A0D50095A03500401F86FF6
:101260000450F96F0550FA6F7F0E0914FB6F0501EA
:101270002CB125D00401F935FB31046EFA31036E2F
:10128000043404320332000E04BEFF0E096E056EF4
:1012900086C40AF00B6A0C6A0D6A0D50800FF36E5B
:1012A0000950800FF35C08E105500C5C05E1045027
:1012B0000B5C02E103500A5C02E205012C8105018E
:1012C0002CB149D024C503F025C504F026C505F08E
:1012D00027C509F00401FB51800FF36E0950800F00
:1012E000F35C08E10550FA5D05E10450F95D02E1A7
:1012F0000350F85D08E203C0F8F404C0F9F405C037
:10130000FAF409C0FBF4050139A304D0010E036E01
:10131000046A02D00368046803C070F504C071F564
:101320001AD005012C9131C5F8F432C5F9F433C552
:10133000FAF434C5FBF40401F8510501246F0401EB
:10134000F9510501256F0401FA510501266F0401C9
:10135000FB510501276F0401FB51800F800F08E14D
:10136000000EFA5D05E1000EF95D02E1010EF85D87
:1013700006E20401FC6BFD6BFE6BFF6B46D00401C3
:10138000F851036EF951046EFA51056EFB51E56E8A
:101390000550E56E0450E56E0350E56E010EE56EF6
:1013A000000EE56AE56AE56A67EC23F0036EF3CFA9
:1013B00004F0F4CF05F0E9CF09F0080EE12670C57E
:1013C0000AF071C50BF0E86A050171BFFF0E0C6EE3
:1013D0000D6E0950E56E0550E56E0450E56E035044
:1013E000E56E0D50E56E0C50E56E0B50E56E0A5043
:1013F000E56EAEEC1CF00401FC6FF3CFFDF4F4CF0E
:10140000FEF4E9CFFFF4080EE126020E0401815D2F
:10141000D8A043D1050139A140D10050230F036E5C
:10142000000E0120046E000E0220E56E0450E56EF1
:101430000350E56E0EEC00F0030EE1260050230F82
:10144000036E000E0120046E000E0220056E020ED7
:101450000326000E0422052203C0E9FF04C0F3FFA7
:10146000055018EC33F0036EF3CF04F0F4CF05F021
:10147000E9CF09F0F00E0316033A043A0414041AF3
:1014800003260550E838F00B0412F00E0516053A55
:10149000093A0914091A0526F00E09B609260501AC
:1014A0003551035C0301F56F050136510458030102
:1014B000F66F0501375105580301F76F05013851E3
:1014C00009580301F86FD880F8AFD89022E30401DF
:1014D000831D046E821D036E034A042AE86A04BE5B
:1014E000FF0E056E096E0301F851800FF36E09506F
:1014F000800FF35C08E10550F75D05E10450F65DEF
:1015000002E10350F55D05E30301F56BF66BF76B44
:10151000F86B0301F851800F800F08E1000EF75DB2
:1015200005E1000EF65D02E1010EF55D1EE382C4E9
:1015300003F083C404F0E86A040183BFFF0E056E64
:10154000800FF36E0301F851800FF35C08E1F7514F
:10155000055C05E1F651045C02E1F551035C05E32D
:101560000301F56BF66BF76BF86B0401875109E02B
:10157000E86CD8900301F537F637F737F837010FE5
:10158000F9E30301F851800F800F08E1000EF75DC9
:1015900005E1800EF65D02E1000EF55D07E3030153
:1015A000F5697F0EF66FF76BF86B14D00301F851F5
:1015B000800F810F08E1FF0EF75D05E1800EF65DFB
:1015C00002E1000EF55D06E20301F56B800EF66F99
:1015D000F769F8690050330F036E000E0120046EA6
:1015E000000E0220056E0301F551096EF651E56EFD
:1015F0000950E56E0550E56E0450E56E0350E56E4A
:101600000BEC0CF0050EE12604018151030A23E1E5
:101610000050330F036E000E0120046E000E0220F6
:10162000056E0B0E0326000E0422052203C0E9FFFF
:1016300004C0F3FF055018EC33F0F3CF04F0F4CFFF
:1016400005F00450036E0550046E03500501206F31
:101650000450216F22D00050330F036E000E012082
:10166000046E000E0220056E0B0E0326000E0422EF
:10167000052203C0E9FF04C0F3FF055018EC33F066
:10168000F3CF04F0F4CF05F00450036E0550046E60
:1016900003500501226F0450236F81C403F00350EF
:1016A000010A04E00350030A01E07DD020C503F0E5
:1016B00021C504F0E86A050121BFFF0E056E096E21
:1016C0000401FC51035C0301F56F0401FD51045852
:1016D0000301F66F0401FE5105580301F76F040181
:1016E000FF5109580301F86F800F800F08E1000EC9
:1016F000F75D05E1800EF65D02E1000EF55D07E3A2
:101700000301F5697F0EF66FF76BF86B14D00301D8
:10171000F851800F810F08E1FF0EF75D05E1800EA3
:10172000F65D02E1000EF55D06E20301F56B800E49
:10173000F66FF769F8690050440F036E000E012040
:10174000046E000E0220056E0301F551096EF6517C
:10175000E56E0950E56E0550E56E0450E56E0350E8
:10176000E56E0BEC0CF0050EE126440E0026000E93
:10177000012202220B0E0026000E0122022200C0CE
:10178000E9FF01C0F3FF025018EC33F0F3CF01F092
:10179000F4CF02F00150006E0250016E00500501BE
:1017A000226F0150236F0850086EE56A0D0EE56E3A
:1017B000800EE56E050EE56E200EE56E0850E56EB6
:1017C0000750E56E0650E56EA5EC26F0080EE12602
:1017D000E4CF0DF0E4CF0CF0E4CF0BF0E4CF0AF04F
:1017E000E4CF09F0E4CF08F0E4CF07F0E4CF06F04F
:1017F000E4CF05F0E4CF04F0E4CF03F0E4CF02F04F
:10180000E4CF01F0E4CF00F0E4CFD9FF120025646B
:101810002025640A0000D9CFE5FFE1CFD9FF00C041
:10182000E5FF01C0E5FF02C0E5FF03C0E5FF04C01E
:10183000E5FF05C0E5FF06C0E5FF07C0E5FF08C0FE
:10184000E5FF09C0E5FF0AC0E5FF0BC0E5FF0CC0DE
:10185000E5FF0DC0E5FF0EC0E5FF020EDBCF00F097
:10186000030EDBCF01F0040EDBCF02F0050EDBCF61
:1018700003F0060EDBCF04F002500A6E0150096E31
:101880000050086EE56A110EE56E0A50E56E0950CB
:10189000E56E0850E56E800EE56E0F0EE56E230EC8
:1018A000E56EA5EC26F0080EE12632CF05F033CF29
:1018B00006F0E86A0F0133BFFF0E076E05014A6F9D
:1018C0000650496F0550486F476B03C005F004C0D0
:1018D00006F0E86A04BEFF0E076E086E23CF09F01B
:1018E000E56AE56AE56A0950E56E0850E56E07505D
:1018F000E56E0650E56E0550E56EAEEC1CF003019A
:10190000F96FF3CFFAF3F4CFFBF3E9CFFCF3080E52
:10191000E1260F012451D8B4E3D00450800F800F8A
:1019200002E1010E035C25E30F012951800F7C0FBA
:1019300008E1000E285D05E1000E275D02E1000EC2
:10194000265D17E20F013151800FF36E05014A51F8
:10195000800FF35C0DE149510F01305D09E1050194
:1019600048510F012F5D04E1050147510F012E5D24
:1019700033E3D88004AED890D8A043D00F012951CA
:10198000800F840F08E1000E285D05E1000E275D41
:1019900002E1010E265D35E305014A1D0C6E491D6D
:1019A0000B6E481D0A6E471D096E092A04E10A2ABA
:1019B00002E10B4A0C2A0C50800FF36E0F013151DB
:1019C000800FF35C08E130510B5C05E12F510A5C9C
:1019D00002E12E51095C15E205500F012625096E22
:1019E000065027210A6E075028210B6E0850292126
:1019F0000C6E0950266F0A50276F0B50286F0C5041
:101A0000296F0350041031E126CF03F027CF04F0F3
:101A100028CF09F029CF0AF0E56AE56AE56A100ED9
:101A2000E56E0A50E56E0950E56E0450E56E035010
:101A3000E56E7BEC1FF00B6EF3CF0CF0F4CF0DF0E6
:101A4000E9CF0EF0080EE1260B50035E0C50045A4D
:101A50000D50095A0E500A5A03500F01266F0450B8
:101A6000276F0950286F0A50296F0F0126390F0B75
:101A7000036E2739046EF00B041A03262851E83848
:101A8000F00B041228390F0B096E29390A6EF00B7E
:101A90000A1A0926F00E0AB60A2624CF0BF0E56AC8
:101AA000E56AE56A0B50E56E0A50E56E0950E56E91
:101AB0000450E56E0350E56EAEEC1CF0036EF3CF00
:101AC00004F0F4CF09F0E9CF0AF0080EE126035044
:101AD0000301F9270450FA230950FB230A50FC2381
:101AE0000F012551D8B465D02A51055C05014B6F13
:101AF0000F012B51065805014C6F0F012C5107584F
:101B000005014D6F0F012D51085805014E6F800FD3
:101B1000800F08E1010E4D5D05E1000E4C5D02E114
:101B2000000E4B5D06E305014B694C694D6B4E6B36
:101B300013D005014E51800F810F08E1FF0E4D5D5E
:101B400005E1000E4C5D02E1000E4B5D05E2050172
:101B50004B6B4C6B4D694E6905014B514B25036E28
:101B60004C35046E4D35096E4E350A6E25CF0BF09F
:101B7000E56AE56AE56A0B50E56E0A50E56E0950C4
:101B8000E56E0450E56E0350E56EAEEC1CF0036E9E
:101B9000F3CF04F0F4CF09F0E9CF0AF0080EE12604
:101BA00003500301F9270450FA230950FB230A507C
:101BB000FC2305500F012A6F06502B6F07502C6F26
:101BC00008502D6F05014A51800FF36E0301FC513F
:101BD000800FF35C0DE1FB510501495D09E1030153
:101BE000FA510501485D04E10301F9510501475D22
:101BF00011E2050147510F012E6F050148510F01F8
:101C00002F6F050149510F01306F05014A510F0136
:101C1000316F3AD005014A1D066E491D056E481DFB
:101C2000046E471D036E032A04E1042A02E1054AFB
:101C3000062A0301FC51800FF36E0650800FF35CFF
:101C400008E10550FB5D05E10450FA5D02E1035037
:101C5000F95D0AE203500F012E6F04502F6F0550FB
:101C6000306F0650316F10D00301F9510F012E6F04
:101C70000301FA510F012F6F0301FB510F01306F68
:101C80000301FC510F01316FE56A110EE56E800E04
:101C9000E56E0F0EE56E230EE56E0250E56E015007
:101CA000E56E0050E56EA5EC26F0080EE126E4CFC7
:101CB0000EF0E4CF0DF0E4CF0CF0E4CF0BF0E4CF66
:101CC0000AF0E4CF09F0E4CF08F0E4CF07F0E4CF66
:101CD00006F0E4CF05F0E4CF04F0E4CF03F0E4CF66
:101CE00002F0E4CF01F0E4CF00F0E4CFD9FF12001E
:101CF00000C0E5FF01C0E5FF02C0E5FF03C0E5FF4E
:101D000004C0E5FF05C0E5FF06C0E5FF07C0E5FF2D
:101D100008C0E5FFC2A204D004012051BCEF10F0BE
:101D200004012151D8B436D104012051020DF450E0
:101D3000016EF3CF00F0E00E0026000E012200C07D
:101D4000E9FF01C0EAFFEECF00F0EFCF01F0E80EAF
:101D50002025026E036A040E032202C0E9FF03C0BD
:101D6000EAFFEFCF02F00250FF0A01E16DD009C097
:101D7000E5FFF2CF09F0F29E02380F0B046E920ECF
:101D80000424056E066A0F0E0622076A920E0426C8
:101D90000F0E072204C0E9FF07C0EAFFEFCF04F0EF
:101DA0000250076E070E0716010E086E07500DE071
:101DB00006E6E86CD8900836010FFDE306D0D8900F
:101DC00008BED8800832010FFBE3081C076E0450E0
:101DD000071605C0E9FF06C0EAFF07C0EFFF02389B
:101DE0000F0B046E890E0424056E066A0F0E062280
:101DF000076A890E04260F0E072204C0E9FF07C0F8
:101E0000EAFFEFCF04F0070E0216010E076E025034
:101E10000DE006E6E86CD8900736010FFDE306D02A
:101E2000D89007BED8800732010FFBE3071C026E73
:101E30000450021605C0E9FF06C0EAFF02C0EFFF2A
:101E400009BEF28EE4CF09F004012051020DF450D6
:101E5000036EF3CF02F0E00E0226000E03220134DF
:101E60000130056E0030046E05340532043205344D
:101E7000053204320450005C046E05500158056EB2
:101E8000C3CF00F0016A0050042601500522C4CFE0
:101E900000F0016A0050076E066A065004260750DB
:101EA000052202C0E9FF03C0EAFF04C0EEFF05C03F
:101EB000EFFF04011C51010A01E06AD00401205126
:101EC000020DF450016EF3CF00F0E00E0024026E1C
:101ED000000E0120036E02C0E9FF03C0EAFFEECF4F
:101EE00002F0EFCF03F0750E0026030E012200C0B2
:101EF000E9FF01C0EAFFEECF04F0EFCF05F09C0E42
:101F00000426D8A005060350800FF36E0550800FFD
:101F1000F35C02E10450025C0EE20250640F046EB6
:101F2000000E0320056E00C0E9FF01C0EAFF04C0F7
:101F3000EEFF05C0EFFF04012051020DF450016EC9
:101F4000F3CF00F0950E0026030E012200C0E9FF3A
:101F500001C0EAFFEECF04F0EFCF05F0640E0426D7
:101F6000D8B0052A0550800FF36E0350800FF35C44
:101F700002E10250045C0CE29C0E0226D8A003068B
:101F800000C0E9FF01C0EAFF02C0EEFF03C0EFFF9F
:101F90000401216B0401202B100E205DD8B0206BB2
:101FA0002039E8441F0B006E016A6C0E0026050EF6
:101FB000012200C0E9FF01C0EAFFEFCF00F020C41A
:101FC00001F0070E0116010E026E000E036E0150A5
:101FD00006E0E86CD89002360336010FFCE3046A91
:101FE000005002160450031602500310D880E86611
:101FF000D890026A02360250D8A4BCD0000E040168
:102000002025006E016A050E012200C0E9FF01C013
:10201000EAFFEFCF00F00044E844FC0B016E01281A
:10202000C26EE80E2025006E016A040E012200C077
:10203000E9FF01C0EAFFEFCF00F00050FF0A01E125
:1020400095D009C0E5FFF2CF09F0F29E00380F0BE2
:10205000026E920E0224036E046A0F0E0422056AB9
:10206000920E02260F0E052202C0E9FF05C0EAFF0C
:10207000EFCF02F00050056E070E0516010E066E3A
:1020800005500DE006E6E86CD8900636010FFDE33A
:1020900006D0D89006BED8800632010FFBE302506E
:1020A000061203C0E9FF04C0EAFF06C0EFFF09BE45
:1020B000F28EE4CF09F0380E016E0F0E026E00387A
:1020C0000F0B036E046A0350012604500222380EDF
:1020D000056E0F0E066E055003260650042203C03F
:1020E000E9FF04C0EAFFEFCF03F0070E0016010E70
:1020F000046E00500DE006E6E86CD8900436010F3F
:10210000FDE306D0D89004BED8800432010FFBE373
:102110000350041201C0E9FF02C0EAFF04C0EFFF50
:102120000F0145830000000045930F01449309C04F
:10213000E5FFF2CF09F0F29E4481000000000000AC
:10214000000000000000000000000000000000008F
:10215000000000000000000000000000000000007F
:102160000000449109BEF28EE4CF09F0C282010E54
:102170000401216F04012051E4CF08F0E4CF07F0FF
:10218000E4CF06F0E4CF05F0E4CF04F0E4CF03F0B1
:10219000E4CF02F0E4CF01F0E4CF00F0120000C081
:1021A000E5FF01C0E5FF02C0E5FF03C0E5FF04C095
:1021B000E5FF05C0E5FF06C0E5FF07C0E5FF08C075
:1021C000E5FF09C0E5FF0AC0E5FF0BC0E5FF0CC055
:1021D000E5FF006A016A026A040E025CD8B0EBD126
:1021E000100E015CD8B0E7D1012A0401222B100E99
:1021F000225DD8B0226B2239E8441F0B036E046ABB
:102200006C0E0326050E042203C0E9FF04C0EAFF9A
:10221000EFCF03F022C404F0070E0416010E056E82
:10222000000E066E045006E0E86CD89005360636BF
:10223000010FFCE3076A0350051607500616055008
:102240000610D880E866D890056A05360550D8A4EF
:10225000C3D704012251020DF450046EF3CF03F0F2
:10226000E00E0324056E000E0420066E05C0E9FF93
:1022700006C0EAFFEECF05F0EFCF06F01FC407F06F
:1022800007A09DD0750E0324076E030E0420086E70
:1022900007C0E9FF08C0EAFFEECF07F0EFCF08F074
:1022A0000650800FF36E0850800FF35C02E1075078
:1022B000055C03E2056A066A60D0950E0326030EEC
:1022C000042203C0E9FF04C0EAFFEECF03F0EFCF22
:1022D00004F00450800FF36E0650800FF35C02E1AF
:1022E0000550035C04E205683F0E066E46D00750B9
:1022F000055C096E085006580A6EE86A0ABEFF0EB1
:102300000B6EE56E0B50E56E0A50E56E0950E56EFA
:10231000E56AE56A400EE56E000EE56AAEEC1CF07B
:10232000096EF3CF0AF0F4CF0BF0E9CF0CF0080EF2
:10233000E1260750035C076E08500458086EE86AEF
:1023400008BEFF0E036EE56E0350E56E0850E56EA5
:102350000750E56E0C50E56E0B50E56E0A50E56EC9
:102360000950E56E67EC23F0036EF3CF04F0080E1E
:10237000E1260350056E0450066E04011E51800FC5
:10238000F36E0650800FF35C02E105501D5D03E320
:10239000056A066A14D004011D51FF08036E3F0E42
:1023A0001E55046E0650800FF36E0450800FF35CD0
:1023B00002E10350055C03E305683F0E066E04016D
:1023C0002251020DF450046EF3CF03F0550E032694
:1023D000030E042203C0E9FF04C0EAFFEECF03F0BE
:1023E000EFCF04F00350055C036E04500658046EF2
:1023F000D88004AED89004E3041E036CD8B4042A39
:10240000022A04011E51800FF36E0450800FF35C0A
:1024100002E103501D5DD8B0DFD604012251020D48
:10242000F450046EF3CF03F0550E0326030E04227E
:1024300003C0E9FF04C0EAFF05C0EEFF06C0EFFFDE
:102440001FC403F003A459D02251020DF450046EAE
:10245000F3CF03F0B50E0324076E030E0420086EBD
:1024600007C0E9FF08C0EAFFEECF09F0EFCF0AF09E
:1024700009500A10D8B441D05C0E0326040E042281
:1024800003C0E9FF04C0EAFFEECF03F0EFCF04F092
:102490000350055C036E04500658046E03101CE0E4
:1024A0000450800F800F02E1010E035C0B6A0B36B3
:1024B0000A50800F800F02E1010E095C096A09369B
:1024C0000B50091809E107C0E9FF08C0EAFF03C083
:1024D000EEFF04C0EFFF80D604012251020DF4503C
:1024E000046EF3CF03F0B50E0326030E042203C0DF
:1024F000E9FF04C0EAFFEE6AEF6A1FC403F003A21B
:1025000046D000500EE100C003F0002A046A230EFA
:102510000326040E042203C0E9FF04C0EAFF420EB2
:10252000EF6E00C003F00028046E076A230E032636
:10253000040E072204012251086E640E082603C00F
:10254000E9FF07C0EAFF08C0EFFF04C003F0042A58
:10255000076A230E0326040E07220650086E03C0E6
:10256000E9FF07C0EAFF08C0EFFF04C003F004283A
:10257000006E046A230E0326040E04220550076E23
:1025800003C0E9FF04C0EAFF07C0EFFF25D622C45D
:1025900003F00650E56E0550E56EE56A0350E56E02
:1025A000000EE56E4D0EE56E3E0EE56EA3EC2FF0CF
:1025B000070EE12611D602C001F000501EE01FC434
:1025C00002F002A21AD000C002F0002A036A230E11
:1025D0000226040E032202C0E9FF03C0EAFF0A0E2E
:1025E000EF6E0050E56E800EE56E040EE56E230E74
:1025F000E56E27EC27F0040EE1260150E4CF0CF045
:10260000E4CF0BF0E4CF0AF0E4CF09F0E4CF08F018
:10261000E4CF07F0E4CF06F0E4CF05F0E4CF04F018
:10262000E4CF03F0E4CF02F0E4CF01F0E4CF00F018
:102630001200D9CFE5FFE1CFD9FF00C0E5FF01C00F
:10264000E5FF02C0E5FF03C0E5FF04C0E5FF05C0EC
:10265000E5FF06C0E5FF07C0E5FF08C0E5FF09C0CC
:10266000E5FF0AC0E5FF020EDBCF00F0030EDBCF73
:1026700001F0040EDBCF02F0036A046A2EEC32F0A4
:10268000056EFE0A01E075D0E0EC2DF02EEC32F084
:10269000066E030E065CD8A05AD0060E065CD8B0B3
:1026A00056D0FD0E0624076EFA6AFB6A0734FA3626
:1026B000E834FA36FC0BC60FE56E260EFA22000E41
:1026C000FB22E450F96E69EF13F07BEF13F094EF07
:1026D00013F00050090F076E000E0120086E000E67
:1026E000022007C0E9FF08C0F3FF6AEC34F0036E74
:1026F000F3CF04F02CD00050090F076E000E01201C
:10270000086E000E0220096E020E0726000E082237
:10271000092207C0E9FF08C0F3FF09506AEC34F052
:10272000036EF3CF04F013D00050070F076E000EB6
:102730000120086E000E022007C0E9FF08C0F3FF69
:10274000E0EC34F0010B076E07C003F0046A04509C
:10275000E56E0350E56EE56A0650E56E000EE56E27
:10276000180EE56E0E0EE56EA3EC2FF0070EE126B7
:1027700086D1080E055CD8B082D1FA6AFB6A0534AE
:10278000FA36E834FA36FC0B980FE56E270EFA227B
:10279000000EFB22E450F96EDCEF13F0F7EF13F0BC
:1027A00009EF14F01BEF14F043EF14F06FEF14F087
:1027B0008EEF14F0EBEF14F00050230F036E000EB9
:1027C0000120046E000E0220E56E0450E56E0350F9
:1027D000E56E58EC15F0030EE126020EE56E00C022
:1027E000E9FF01C0F3FF025072EC35F048D1005010
:1027F000330F036E000E0120046E000E0220E56E02
:102800000450E56E0350E56E18EC18F0030EE12657
:1028100036D10050440F036E000E0120046E000EEE
:102820000220E56E0450E56E0350E56E18EC18F0DA
:10283000030EE12624D10050090F036E000E012083
:10284000046E000E0220056E2EEC32F0066A076E52
:102850002EEC32F0096A06260950072206C0E5FF71
:1028600007C0F4FF03C0E9FF04C0F3FF055039ECD3
:1028700035F0010EE56E00C0E9FF01C0F3FF025024
:1028800072EC35F0FCD00050090F036E000E0120F1
:10289000046E000E0220056E020E0326000E0422B6
:1028A00005222EEC32F0066A076E2EEC32F0096A31
:1028B00006260950072206C0E5FF07C0F4FF03C043
:1028C000E9FF04C0F3FF055039EC35F0E56A00C0BC
:1028D000E9FF01C0F3FF025072EC35F0D0D0005098
:1028E000070F036E000E0120046E000E0220056E1D
:1028F0002EEC32F0010BF46E03C0E9FF04C0F3FFCD
:102900000550E0EC34F0FE0BF410E56E03C0E9FF77
:1029100004C0F3FF055072EC35F0B1D02EEC32F06C
:10292000036E0050160F046E000E0120056E000E9F
:102930000220066E04500C0F076E000E0520086E74
:10294000000E0620096E0350D880E866D8900A6A07
:102950000A360A50D880E866D8900A6A0A360A50C1
:10296000010BF46E07C0E9FF08C0F3FF0950E0EC6B
:1029700034F0FE0BF410E56E07C0E9FF08C0F3FF6A
:10298000095072EC35F00350010A01E078D0080ECE
:102990000426000E05220622E56AF46AF66AF76A42
:1029A00004C0E9FF05C0F3FF0650CFEC34F000503F
:1029B000230F036E000E0120046E000E0220E56A54
:1029C000E56AE56E0450E56E0350E56EA8EC27F06D
:1029D000050EE12654D02EEC32F0036A046E2EEC84
:1029E00032F0066A0326065004220050160F056EC8
:1029F000000E0120066E000E0220076E05500C0F1F
:102A0000086E000E0620096E000E07200A6E08C030
:102A1000E9FF09C0F3FFE0EC34F0E880E56E08C0A0
:102A2000E9FF09C0F3FF0A5072EC35F0080E0526E5
:102A3000000E0622072203C008F004C009F008C0F7
:102A4000E5FF09C0F4FFF66AF76A05C0E9FF06C0B2
:102A5000F3FF0750CFEC34F0230E0026000E0122C6
:102A600002220450E56E0350E56E0250E56E0150FF
:102A7000E56E0050E56E15EC2BF0050EE126E4CF77
:102A80000AF0E4CF09F0E4CF08F0E4CF07F0E4CF98
:102A900006F0E4CF05F0E4CF04F0E4CF03F0E4CF98
:102AA00002F0E4CF01F0E4CF00F0E4CFD9FF120050
:102AB000D9CFE5FFE1CFD9FF00C0E5FF01C0E5FFB9
:102AC00002C0E5FF03C0E5FF04C0E5FF05C0E5FF68
:102AD00006C0E5FF07C0E5FF08C0E5FF09C0E5FF48
:102AE000020EDBCF00F0030EDBCF01F0040EDBCFD4
:102AF00002F0036A046A2EEC32F0056EFE0A01E071
:102B000082D0E0EC2DF02EEC32F0066E06500EE096
:102B10000650010A1DE00650020A2CE006500A0A7F
:102B20003BE006500B0A01E142D05BD00050060F9B
:102B3000076E000E0120086E000E022007C0E9FF9C
:102B400008C0F3FF6AEC34F0036EF3CF04F049D011
:102B500000500C0F076E000E0120086E000E0220C0
:102B600007C0E9FF08C0F3FF6AEC34F0036EF3CF4F
:102B700004F037D000500E0F076E000E0120086ED3
:102B8000000E022007C0E9FF08C0F3FF6AEC34F032
:102B9000036EF3CF04F025D000C0E9FF01C0F3FFBE
:102BA00002506AEC34F0036EF3CF04F01AD00050F8
:102BB000020F076E000E0120086E000E022007C0F3
:102BC000E9FF08C0F3FF18EC33F0F3CF08F0F4CFBF
:102BD00009F00850076E0950086E0750036E085040
:102BE000046E0450E56E0350E56EE56A0650E56E2E
:102BF000000EE56E5B0EE56E140EE56EA3EC2FF095
:102C0000070EE126BDD0055014E00550010A30E062
:102C10000550020A01E14BD005500A0A01E166D0D5
:102C200005500B0A01E17BD005500C0A01E190D060
:102C3000A7D00050060F036E000E0120046E000E98
:102C40000220056E2EEC32F0066A076E2EEC32F092
:102C5000096A06260950072206C0E5FF07C0F4FFEF
:102C600003C0E9FF04C0F3FF055039EC35F088D00C
:102C700000500C0F036E000E0120046E000E0220A7
:102C8000056E2EEC32F0066A076E2EEC32F0096A01
:102C900006260950072206C0E5FF07C0F4FF03C05F
:102CA000E9FF04C0F3FF055039EC35F069D000505E
:102CB0000E0F036E000E0120046E000E0220056E42
:102CC0002EEC32F0066A076E2EEC32F0096A062608
:102CD0000950072206C0E5FF07C0F4FF03C0E9FF63
:102CE00004C0F3FF055039EC35F04AD02EEC32F039
:102CF000036A046E2EEC32F0066A032606500422A4
:102D00000450E56E0350E56E0250E56E0150E56E2D
:102D10000050E56E10EC31F0050EE12631D02EECBE
:102D200032F0036A046E2EEC32F0066A0326065077
:102D300004220450E56E0350E56E0250E56E01502A
:102D4000E56E0050E56EA8EC27F0050EE12618D0E0
:102D50002EEC32F0036A046E2EEC32F0066A032683
:102D6000065004220450E56E0350E56E0250E56EF5
:102D70000150E56E0050E56E15EC2BF0050EE126D6
:102D8000E4CF09F0E4CF08F0E4CF07F0E4CF06F099
:102D9000E4CF05F0E4CF04F0E4CF03F0E4CF02F099
:102DA000E4CF01F0E4CF00F0E4CFD9FF1200800EB1
:102DB000E56E030EE56E950EE56E32EC2EF0030E19
:102DC000E126800EE56E030EE56E750EE56E32ECC3
:102DD0002EF0030EE126800EE56E030EE56E970ED3
:102DE000E56E32EC2EF0030EE126800EE56E030E4A
:102DF000E56E770EE56E32EC2EF0030EE126800EC6
:102E0000E56E030EE56E990EE56E32EC2EF0030EC4
:102E1000E126800EE56E030EE56E790EE56E32EC6E
:102E20002EF0030EE126800EE56E030EE56E9B0E7E
:102E3000E56E32EC2EF0030EE126800EE56E030EF9
:102E4000E56E7B0EE56E32EC2EF0030EE126800E71
:102E5000E56E030EE56E9D0EE56E32EC2EF0030E70
:102E6000E126800EE56E030EE56E7D0EE56E32EC1A
:102E70002EF0030EE126800EE56E030EE56E9F0E2A
:102E8000E56E32EC2EF0030EE126800EE56E030EA9
:102E9000E56E7F0EE56E32EC2EF0030EE126800E1D
:102EA000E56E030EE56EA10EE56E32EC2EF0030E1C
:102EB000E126800EE56E030EE56E810EE56E32ECC6
:102EC0002EF0030EE126800EE56E030EE56EA30ED6
:102ED000E56E32EC2EF0030EE126800EE56E030E59
:102EE000E56E830EE56E32EC2EF0030EE126800EC9
:102EF000E56E030EE56EA50EE56E32EC2EF0030EC8
:102F0000E126800EE56E030EE56E850EE56E32EC71
:102F10002EF0030EE126800EE56E030EE56EA70E81
:102F2000E56E32EC2EF0030EE126800EE56E030E08
:102F3000E56E870EE56E32EC2EF0030EE126800E74
:102F4000E56E030EE56EA90EE56E32EC2EF0030E73
:102F5000E126800EE56E030EE56E890EE56E32EC1D
:102F60002EF0030EE126800EE56E030EE56EAB0E2D
:102F7000E56E32EC2EF0030EE126800EE56E030EB8
:102F8000E56E8B0EE56E32EC2EF0030EE126800E20
:102F9000E56E030EE56EAD0EE56E32EC2EF0030E1F
:102FA000E126800EE56E030EE56E8D0EE56E32ECC9
:102FB0002EF0030EE126800EE56E030EE56EAF0ED9
:102FC000E56E32EC2EF0030EE126800EE56E030E68
:102FD000E56E8F0EE56E32EC2EF0030EE126800ECC
:102FE000E56E030EE56EB10EE56E32EC2EF0030ECB
:102FF000E126800EE56E030EE56E910EE56E32EC75
:103000002EF0030EE126800EE56E030EE56EB30E84
:10301000E56E32EC2EF0030EE126800EE56E030E17
:10302000E56E930EE56E32EC2EF0030EE1261200F3
:10303000D9CFE5FFE1CFD9FF00C0E5FF01C0E5FF33
:1030400002C0E5FF03C0E5FF04C0E5FF05C0E5FFE2
:1030500006C0E5FF07C0E5FF08C0E5FF020EDBCFB5
:1030600000F0030EDBCF01F0040EDBCF02F0036AA9
:10307000046A2EEC32F0056EFE0A01E075D0E0EC39
:103080002DF02EEC32F0066E040E065CD8B05AD04D
:10309000FA6AFB6A0634FA36E834FA36FC0BAE0FED
:1030A000E56E300EFA22000EFB22E450F96E5FEF5F
:1030B00018F06BEF18F07EEF18F091EF18F000C0E9
:1030C000E9FF01C0F3FF0250E0EC34F0076E07C0E7
:1030D00003F0046A37D00050010F076E000E012084
:1030E000086E000E022007C0E9FF08C0F3FFE0EC05
:1030F00034F0076E07C003F0046A24D00050020FBA
:10310000076E000E0120086E000E022007C0E9FFC6
:1031100008C0F3FFE0EC34F0076E07C003F0046A68
:1031200011D000500F0F076E000E0120086E000E28
:10313000022007C0E9FF08C0F3FF6AEC34F0036E19
:10314000F3CF04F00450E56E0350E56EE56A0650D7
:10315000E56E000EE56E440EE56E800EE56EA3ECA6
:103160002FF0070EE12683D0040E055CD8B07FD087
:10317000FA6AFB6A0534FA36E834FA36FC0B8E0F2D
:10318000E56E310EFA22000EFB22E450F96ECFEF0D
:1031900018F0DCEF18F007EF19F01DEF19F02EEC26
:1031A00032F0036E03C0E5FF00C0E9FF01C0F3FF8A
:1031B000025072EC35F05BD00050010F036E000E30
:1031C0000120046E000E0220056E2EEC32F0066E19
:1031D00006C0E5FF03C0E9FF04C0F3FF055072EC31
:1031E00035F00650D8A443D00050030F036E000EF4
:1031F0000120046E000E0220E56AF46AF66AF76A9E
:1032000003C0E9FF04C0F3FFCFEC34F030D000502E
:10321000020F036E000E0120046E000E0220056EE8
:103220002EEC32F0066E06C0E5FF03C0E9FF04C0D5
:10323000F3FF055072EC35F01AD00F0E0026000E89
:10324000012202222EEC32F0036A046E2EEC32F0E0
:10325000066A03260650042203C0E5FF04C0F4FFFB
:1032600000C0E9FF01C0F3FF025039EC35F0E4CFB4
:1032700008F0E4CF07F0E4CF06F0E4CF05F0E4CFA8
:1032800004F0E4CF03F0E4CF02F0E4CF01F0E4CFA8
:1032900000F0E4CFD9FF120000C0E5FF01C0E5FF58
:1032A00002C0E5FF03C0E5FFD7EC22F078EC0EF09A
:1032B000DAEC31F0006EF3CF01F0F4CF02F0E9CF99
:1032C00003F004017C51005E7D51015A7E51025A87
:1032D0007F51035A039E3F0E035C08E1FF0E025C20
:1032E00005E1FF0E015C02E1FF0E005CD8B0F9D0F1
:1032F000DAEC31F0F3CF01F0F4CF02F0E9CF03F0D4
:10330000100F04017C6F270E01207D6F000E02203C
:103310007E6F000E03207F6F04C0E5FFF2CF04F044
:10332000F29E0301165105012D6F0301175105018E
:103330002E6F0301185105012F6F0301195105016B
:10334000306F03011A510501316F03011B51050153
:10335000326F03011C510501336F03011D5105013B
:10336000346F03011E510501356F03011F51050123
:10337000366F030120510501376F0301215105010B
:10338000386F030122510501396F03011A6B1B6B62
:103390001C6B1D6B04BEF28EE4CF04F0800EE56E54
:1033A000030EE56E000EE56E87EC08F0030EE126D5
:1033B0000BC372F50CC373F505017351800F7C0FBD
:1033C00002E1000E725D04E305017269030E736F82
:1033D00005017351800F840F02E1010E725D05E259
:1033E000010E0501726FFC0E736F05017351800FA2
:1033F000800F02E1010E725D10E305017351800F31
:10340000F36E03010451800FF35C03E103510501E6
:10341000725D03E20501726B736BD880050173AFB7
:10342000D89015E30301041D016E031D006E004AD0
:10343000012A0150800FF36E05017351800FF35C78
:1034400002E17251005C03E20501726B736B0301D0
:1034500007A309D022A507D0D880050173AFD89063
:1034600002E3726B736BD880050173AFD89007E3EA
:103470007251FF0F006E030E7321016E04D072C5EE
:1034800000F073C501F000C074F501C075F50F01BF
:10349000549B05017451010BE838F46E0F0154512F
:1034A000EF0BF410546F050175357531016E7431F1
:1034B000006E01340132003200500F01556FD88088
:1034C000050173AFD89002E38A8A01D08A9A76C543
:1034D00000F00501762B0B0E005C03E3B8EC1DF049
:1034E000766BE4CF03F0E4CF02F0E4CF01F0E4CF59
:1034F00000F0120000C0E5FF01C0E5FF02C0E5FFDB
:1035000003C0E5FF04011951D8B40CD1A3A81DD004
:10351000A4A81BD00501805105017E1905E11DEC11
:1035200035F005017E6BFED0000E05018025006E92
:10353000016A0F0E012200C0E9FF01C0EAFFEFCFD0
:103540007AF5802B7AC573FFEDD0A3AAEBD0A4AA9D
:10355000E9D071A205D005017F811DEC35F0E2D0E4
:1035600071A405D005017F831DEC35F0DBD071A07F
:1035700048D074CF7AF51AC400F0016A008E7AC57B
:1035800002F0036A0250001803E10350011801E041
:1035900004D005017F897196C5D005017A5104E0F8
:1035A0007A5104011A1929E105017F9971960501E3
:1035B0007A5103E005017F9702D005017F877AC524
:1035C00083F57CC584F505017C51006E000405017E
:1035D000856F600E05018425006E016A000E0122D0
:1035E00000C0E9FF01C0EAFF7AC5EFFF842B8451D8
:1035F000800A02E10501846B95D005017F997186EF
:1036000091D074CF7AF505017FA921D01AC400F0BA
:10361000016A008E7AC502F0036A0250001803E1C5
:103620000350011801E011D0A39A7198929C0501F2
:103630007E5104E1736A1DEC35F007D000CF73FFB3
:10364000010E0501806FA3886DD071866BD00501D6
:103650007A510501832705018451050185191BE174
:10366000050183510CE184C57CF505017FB712D0BB
:10367000A39A7198929C736A1DEC35F00BD00501EA
:103680007F857FB707D0A39A7198929C010E736EC5
:103690001DEC35F047D00501845105017D1908E185
:1036A00005017D5105017C1903E01DEC35F03AD090
:1036B0007CC500F0016A004A012AE56A800EE56EC9
:1036C0000150E56E0050E56EA0EC28F0006E040E8F
:1036D000E126005005017B6F050184190FE17AC5D1
:1036E00000F01F0E00140501856F006E020E00240D
:1036F000856F05017C5105018527859F84C500F0F4
:103700000501842B016A600E0026000E012200C014
:10371000E9FF01C0EAFF7AC5EFFF8451800A02E1A8
:103720000501846BE4CF03F0E4CF02F0E4CF01F0B5
:10373000E4CF00F0120000C0E5FF01C0E5FF02C0C9
:10374000E5FF03C0E5FF05C0E5FFAAEC35F0929E5A
:10375000899EDAEC31F0F3CF01F0F4CF02F0E9CF3B
:1037600003F0880F04017C6F130E01207D6F000EA3
:1037700002207E6F000E03207F6F22EC26F08998D6
:103780008A9A8A86040189839298939A939604016F
:1037900092939488820E006E0F0E016E0F0E036ED0
:1037A000380E0026035001220F0E036E800E005EBD
:1037B0000350015A820E026E0F0E036E0F0E056E3D
:1037C000380E0226055003220F0E056E800E025E93
:1037D0000550035A02C0E9FF03C0EAFFEFCF02F031
:1037E000029800C0E9FF01C0EAFF02C0EFFF948623
:1037F000820E006E0F0E016E0F0E036E380E002645
:10380000035001220F0E036E800E005E0350015A1A
:10381000820E026E0F0E036E0F0E056E380E02261C
:10382000055003220F0E056E800E025E0550035AEE
:1038300002C0E9FF03C0EAFFEFCF02F0029600C02A
:10384000E9FF01C0EAFF02C0EFFF928A800E006E1E
:103850000F0E016E0F0E036E380E0026035001226C
:10386000800E026E0F0E036E800E005E0350015A32
:103870000F0E056E380E0226055003220F0E056E40
:10388000800E025E0550035A02C0E9FF03C0EAFF42
:10389000EFCF02F0029A00C0E9FF01C0EAFF02C0C8
:1038A000EFFF0C0E0F01546F0F01549B54990F0141
:1038B000556B0301006B020E016F026B0A0E036F62
:1038C000046B100E056F070E066F07910783800EBD
:1038D000E56E030EE56E230EE56E3BEC2DF0030E58
:1038E000E126800EE56E030EE56E440EE56EB0EC4B
:1038F00021F0030EE126800EE56E030EE56E330E19
:10390000E56EB0EC21F0030EE12603011E6B1F6B88
:10391000206B216B22912295096B0A6B0B6B0C6B50
:10392000116B126B136B146B07830A0E016F026B22
:10393000640E036F046B060E066F91EC35F0330EC8
:10394000CD6E9D809F80E4CF05F0E4CF03F0E4CFFF
:1039500002F0E4CF01F0E4CF00F01200D9CFE5FF90
:10396000E1CFD9FF00C0E5FF01C0E5FF02C0E5FFE0
:1039700003C0E5FF04C0E5FF05C0E5FF06C0E5FFA5
:1039800007C0E5FF020EDBCF00F0030EDBCF01F036
:10399000040EDBCF02F0050EDBCF03F0060EDBCF0B
:1039A00004F0070EDBCF05F0080EDBCF06F0090EA2
:1039B000DBCF07F0005005014F6F0150506F0250F0
:1039C000516F0350526F04500501536F0550546FEF
:1039D0000650556F0750566F05014F5105015503AD
:1039E000F4CF01F0F3CF00F000500501596F015002
:1039F0005A6F05014F5105015303F4CF01F0F3CF86
:103A000000F000500501576F0150586F05015251E9
:103A100005015303F3CF00F005015A510026005071
:103A20005A6F0501515105015403F3CF01F00150C4
:103A30000026005005015A6F05015151050153033D
:103A4000F4CF01F0F3CF00F00501595100265A518F
:103A500001220050596F01505A6F05015051050164
:103A60005403F4CF03F0F3CF02F0025000260350CA
:103A7000012200500501596F01505A6F0501505144
:103A800005015503F3CF00F0005005015E6F0501FD
:103A9000505105015303F4CF01F0F3CF00F0005073
:103AA00005015C6F01505D6F05014F510501560323
:103AB000F3CF00F000500501626F05014F51050181
:103AC0005403F4CF01F0F3CF00F000500501606F14
:103AD0000150616F05015B6B05015F6B05015B5177
:103AE00005015725006E05015C5105015821016E45
:103AF00005015D5105015921026E05015E51050167
:103B00005A21036E0050576F0150586F0250596F81
:103B100003505A6F05015F5105015725006E0501DD
:103B2000605105015821016E0501615105015921BE
:103B3000026E0501625105015A21036E03C0E9FFBF
:103B400002C0F4FF01C0F3FF0050E4CF07F0E4CF60
:103B500006F0E4CF05F0E4CF04F0E4CF03F0E4CFC7
:103B600002F0E4CF01F0E4CF00F0E4CFD9FF12007F
:103B700000C0E5FF01C0E5FF02C0E5FF030E05013F
:103B8000686F696B03011F510401026F68C500F083
:103B900069C501F00501683F01D0692B000E0026C0
:103BA000040E01221EC302F000C0E9FF01C0EAFFBB
:103BB00002C0EFFF68C500F069C501F00501683F6C
:103BC00001D0692B000E0026040E0122026A82B881
:103BD000022A025003E1026A022A01D0026A00C0EE
:103BE000E9FF01C0EAFF02C0EFFF68C500F069C548
:103BF00001F00501683F01D0692B000E0026040E7C
:103C0000012200C0E9FF01C0EAFFEF6A68C500F0C9
:103C100069C501F00501683F01D0692B000E00263F
:103C2000040E012203010C51026E00C0E9FF01C025
:103C3000EAFF02C0EFFF68C500F069C501F00501A9
:103C4000683F01D0692B000E0026040E01220BC331
:103C500002F000C0E9FF01C0EAFF02C0EFFF03016C
:103C60002651006E2751016E00500501666F01500C
:103C7000676F68C500F069C501F00501683F01D0B4
:103C8000692B000E0026040E012205016751026E09
:103C900000C0E9FF01C0EAFF02C0EFFF68C500F005
:103CA00069C501F00501683F01D0692B000E0026AF
:103CB000040E012205016651026E00C0E9FF01C039
:103CC000EAFF02C0EFFF68C500F069C501F0050119
:103CD000683F01D0692B000E0026040E0122026A03
:103CE000030122B1022A00C0E9FF01C0EAFF02C0BD
:103CF000EFFF68C500F069C501F00501683F01D01C
:103D0000692B000E0026040E012200C0E9FF01C04D
:103D1000EAFF0A0EEF6E05016851E56E800EE56E52
:103D2000040EE56E000EE56E27EC27F0040EE1268A
:103D3000E4CF02F0E4CF01F0E4CF00F01200D9CFDD
:103D4000E5FFE1CFD9FF00C0E5FF01C0E5FF02C0FC
:103D5000E5FF03C0E5FF04C0E5FF05C0E5FF06C0C1
:103D6000E5FF07C0E5FF08C0E5FF09C0E5FF0AC0A1
:103D7000E5FF0BC0E5FF0CC0E5FF0DC0E5FF0EC081
:103D8000E5FF0FC0E5FF020EDBCF00F0030EDBCF37
:103D900001F0040EDBCF02F0050EDBCF03F0060EC0
:103DA000DBCF04F0070EDBCF05F0080EDBCF06F00B
:103DB000200E076E086A06C009F00A6A0B6A0C6AD0
:103DC000E56AE56AE56A0950E56E0350E56E025062
:103DD000E56E0150E56E0050E56E13EC21F00D6EBE
:103DE000080EE126300E0D263A0E0D5C05E30D504F
:103DF0000E6E270E0E240D6EFF0E07260822D50E1E
:103E000007240E6E030E08200F6E0EC0E9FF0FC0D0
:103E1000EAFF0DC0EFFF0C50E56E0B50E56E0A5047
:103E2000E56E0950E56E0350E56E0250E56E0150F7
:103E3000E56E0050E56E67EC23F0006EF3CF01F005
:103E4000F4CF02F0E9CF03F0080EE1260050011094
:103E500002100310D8A4AFD707C000F008C001F0CB
:103E600004C002F005C003F000C004F001C005F07A
:103E7000004A012AD50E0426030E052204C0E9FFDC
:103E800005C0EAFFEFCF04F002C0E9FF03C0EAFF7C
:103E900004C0EFFF024A032A000E015C02E1200E7B
:103EA000005CE2E302C0E9FF03C0EAFF000EEF6A34
:103EB000E4CF0FF0E4CF0EF0E4CF0DF0E4CF0CF040
:103EC000E4CF0BF0E4CF0AF0E4CF09F0E4CF08F040
:103ED000E4CF07F0E4CF06F0E4CF05F0E4CF04F040
:103EE000E4CF03F0E4CF02F0E4CF01F0E4CF00F040
:103EF000E4CFD9FF1200D9CFE5FFE1CFD9FF00C051
:103F0000E5FF01C0E5FF02C0E5FF03C0E5FF04C017
:103F1000E5FF05C0E5FF06C0E5FF07C0E5FF08C0F7
:103F2000E5FF09C0E5FF0AC0E5FF0BC0E5FF0CC0D7
:103F3000E5FF0DC0E5FF020EDBCF00F0030EDBCF87
:103F400001F0040EDBCF02F0050EDBCF03F0060E0E
:103F5000DBCF04F0070EDBCF05F0080EDBCF06F059
:103F6000090EDBCF07F0D88003AED890086A083678
:103F700008500FE0031C0C6E021C0B6E011C0A6E35
:103F8000001C096E092A0DE10A2A0BE10B4A0C2AD2
:103F900008D000C009F001C00AF002C00BF003C055
:103FA0000CF0D88007AED890006A003600500FE0C1
:103FB000071C0D6E061C036E051C026E041C016EB0
:103FC000012A0DE1022A0BE1034A0D2A08D004C0A0
:103FD00001F005C002F006C003F007C00DF00D505F
:103FE000E56E0350E56E0250E56E0150E56E0C5033
:103FF000E56E0B50E56E0A50E56E0950E56E67EC14
:1040000023F0016EF3CF02F0F4CF03F0E9CF04F018
:10401000080EE1260050081A085016E0041C076E2E
:10402000031C066E021C056E011C006E002A04E1D2
:10403000052A02E1064A072A07C0E9FF06C0F4FF85
:1040400005C0F3FF005007D004C0E9FF03C0F4FF30
:1040500002C0F3FF0150E4CF0DF0E4CF0CF0E4CF49
:104060000BF0E4CF0AF0E4CF09F0E4CF08F0E4CF9E
:1040700007F0E4CF06F0E4CF05F0E4CF04F0E4CF9E
:1040800003F0E4CF02F0E4CF01F0E4CF00F0E4CF9E
:10409000D9FF120000C0E5FF01C0E5FF02C0E5FF47
:1040A00003C0E5FF9EA0B3D0006A82B6002A00508C
:1040B000010BF46E03010851FE0BF410086F82B877
:1040C00007D01E6B1F6B206B216B2281228502D0D3
:1040D00003012295006A030108B1002A016A08B5AC
:1040E000012A0050011801E18ED0006A030108B1D5
:1040F000002A0050010BE844E844F46E0851FB0B21
:10410000F410086F16511A5D006E17511B59016E9D
:1041100018511C59026E19511D59036E00501A6F27
:1041200001501B6F02501C6F03501D6F0F01345163
:104130000301166F0F0135510301176F0F0136513F
:104140000301186F0F0137510301196F0F0134512B
:1041500000263551012236510222375103220050E8
:1041600003011A6F01501B6F02501C6F03501D6F2B
:10417000006A80BA002A0050010BE844F46E08512E
:10418000FD0BF410086F006A08B1002A016A08B339
:10419000012A0150D880E866D890016A01360150A2
:1041A000001A005019E01EC300F01FC301F020C325
:1041B00002F021C303F0002A04E3012A02E3024AC9
:1041C000032A005003011E6F01501F6F0250206F21
:1041D0000350216F228317D01EC300F01FC301F0CC
:1041E00020C302F021C303F0FF0E002601220222A9
:1041F0000322005003011E6F01501F6F0250206FF9
:104200000350216F2293CF689B0ECE6E9E90E4CF19
:1042100003F0E4CF02F0E4CF01F0E4CF00F01200AD
:10422000430025630000D9CFE5FFE1CFD9FF00C0EF
:10423000E5FF01C0E5FF02C0E5FF03C0E5FF04C0E4
:10424000E5FF05C0E5FF06C0E5FF07C0E5FF08C0C4
:10425000E5FF09C0E5FF0AC0E5FF020EDBCF00F075
:10426000030EDBCF01F0040EDBCF02F0050EDBCF37
:1042700003F0060EDBCF04F0070EDBCF05F0080ECF
:10428000DBCF06F0090EDBCF07F0086A04500510FB
:104290000610071005E1E968F468F368E86847D09C
:1042A000096A0750800BE8440A6E0A501BE104506B
:1042B00004260536063607360750035C08E106502B
:1042C000025C05E10550015C02E10450005C06E27D
:1042D000D890073206320532043204D0092A09C0C8
:1042E00008F0DFD70750035C08E10650025C05E1E7
:1042F0000550015C02E10450005C08E30450005EDC
:104300000550015A0650025A0750035AD8900732F6
:1043100006320532043208C009F008060950E2E10D
:1043200003C0E9FF02C0F4FF01C0F3FF0050E4CF77
:104330000AF0E4CF09F0E4CF08F0E4CF07F0E4CFCF
:1043400006F0E4CF05F0E4CF04F0E4CF03F0E4CFCF
:1043500002F0E4CF01F0E4CF00F0E4CFD9FF120087
:10436000D9CFE5FFE1CFD9FF00C0E5FF01C0E5FFF0
:1043700002C0E5FF03C0E5FF04C0E5FF05C0E5FF9F
:1043800006C0E5FF07C0E5FF020EDBCF00F0030E1D
:10439000DBCF01F0040EDBCF02F000500B0F036EF9
:1043A000000E0120046E000E0220E56AF46AF66A2F
:1043B000F76A03C0E9FF04C0F3FFCFEC34F000500C
:1043C000070F036E000E0120046E000E0220056E22
:1043D0000050030F066E000E0120076E000E022033
:1043E000E56AF46AF66AF76A06C0E9FF07C0F3FFF8
:1043F000CFEC34F0E56AF46AF66AF76A03C0E9FFC5
:1044000004C0F3FF0550CFEC34F00050010F036EF1
:10441000000E0120046E000E0220056E0050020FF7
:10442000066E000E0120076E000E0220E56A06C02F
:10443000E9FF07C0F3FF72EC35F0E56A03C0E9FF5E
:1044400004C0F3FF055072EC35F0E56A00C0E9FFE7
:1044500001C0F3FF025072EC35F0E4CF07F0E4CF77
:1044600006F0E4CF05F0E4CF04F0E4CF03F0E4CFAE
:1044700002F0E4CF01F0E4CF00F0E4CFD9FF120066
:1044800025642025640A0000D9CFE5FFE1CFD9FFDC
:1044900000C0E5FF01C0E5FF02C0E5FF03C0E5FF86
:1044A00004C0E5FF05C0E5FF06C0E5FF07C0E5FF66
:1044B00008C0E5FF09C0E5FF0AC0E5FF020EDBCF3B
:1044C00000F0030EDBCF01F0040EDBCF02F0050E8F
:1044D000DBCF03F0060EDBCF04F0070EDBCF05F0D9
:1044E0000038E8441F0B066E076A6C0E0626050EA0
:1044F000072206C0E9FF07C0EAFFEFCF08F000502F
:10450000096E070E0916010E0A6E09500DE006E647
:10451000E86CD8900A36010FFDE306D0D8900ABEA9
:10452000D8800A32010FFBE308500A1206C0E9FFE7
:1045300007C0EAFF0AC0EFFF000E0024066E076AFC
:10454000050E072206C0E9FF07C0EAFF01C0EFFF22
:10455000016AE80E0026040E0122800E025E070E9C
:1045600002160238F00B036E070E051605500326DF
:1045700000C0E9FF01C0EAFF03C0EFFFE4CF0AF08B
:10458000E4CF09F0E4CF08F0E4CF07F0E4CF06F081
:10459000E4CF05F0E4CF04F0E4CF03F0E4CF02F081
:1045A000E4CF01F0E4CF00F0E4CFD9FF120000C067
:1045B000E5FF01C0E5FF02C0E5FF03C0E5FF05011F
:1045C0007D5105017C1901E166D07DC500F0002A0E
:1045D000009E016A600E0026000E012200C0E9FF65
:1045E00001C0EAFFEFCF87F51F0E050187177DC5D4
:1045F00086F58751050186278651006E020E00243C
:10460000866F869F2EEC32F0006E005003E1006A48
:10461000002A01D0006A2EEC32F00501876F87C5B1
:1046200001F0800E011687C502F01F0E021602C0AF
:1046300003F002C087F5035003E17CC57DF53ED051
:1046400000501EE0015025E02EEC32F0006E050116
:104650008751026E0204876F0050420A1AE0005030
:104660004E0A03E161EC2FF014D00050460A03E13A
:104670005CEC35F00ED00050490A0BE1FF0009D088
:104680007DC588F5015003E08FEC2CF002D0F1ECF1
:1046900034F086C57DF5040116510401171906E0B2
:1046A00005017E5103E110EC25F008D092BC06D044
:1046B00005017E5103E172B21DEC35F0E4CF03F049
:1046C000E4CF02F0E4CF01F0E4CF00F01200D9CF44
:1046D000E5FFE1CFD9FF00C0E5FF01C0E5FF02C063
:1046E000E5FF03C0E5FF04C0E5FF05C0E5FF06C028
:1046F000E5FF07C0E5FF08C0E5FF09C0E5FF0AC008
:10470000E5FF0BC0E5FF0CC0E5FF0DC0E5FF020EA5
:10471000DBCF00F0030EDBCF01F0040EDBCF02F0A5
:10472000050EDBCF03F0060EDBCF04F0070EDBCF68
:1047300005F0080EDBCF06F0090EDBCF07F0086AA4
:10474000096A0A6A0B6A200E0C6E0350800BE8445B
:104750000D6E00500026013602360336085008263A
:1047600009360A360B360D50D8A4088007500B5C6A
:1047700008E106500A5C05E10550095C02E10450BD
:10478000085C09E30450085E0550095A06500A5AAD
:1047900007500B5A00800C040D6E0DC00CF00D502C
:1047A000D4E103C0E9FF02C0F4FF01C0F3FF0050F1
:1047B000E4CF0DF0E4CF0CF0E4CF0BF0E4CF0AF03F
:1047C000E4CF09F0E4CF08F0E4CF07F0E4CF06F03F
:1047D000E4CF05F0E4CF04F0E4CF03F0E4CF02F03F
:1047E000E4CF01F0E4CF00F0E4CFD9FF120000C025
:1047F000E5FF01C0E5FF03C0E5FF04C0E5FF05C01C
:10480000E5FF06C0E5FF07C0E5FF08C0E5FF09C0FA
:10481000E5FF0AC0E5FF0BC0E5FF6AC500F06BC508
:1048200001F005016A3F01D06B2B0050E56E0FECE3
:1048300035F0E652076E046A056A066A6AC500F03A
:104840006BC501F005016A3F01D06B2B0050E56E8E
:104850000FEC35F0E6520B6A0A6E086A0850041233
:1048600005120A5006120B5007126AC500F06BC5FC
:1048700001F005016A3F01D06B2B0050E56E0FEC93
:1048800035F0E652036E006A03C001F0E86A03BE29
:10489000FF0E086E096E00500412015005120850F8
:1048A0000612095007126AC500F06BC501F0050138
:1048B0006A3F01D06B2B0050E56E0FEC35F0E652ED
:1048C000016A0412015005120612071207C0E9FF1F
:1048D00006C0F4FF05C0F3FF0450E4CF0BF0E4CFB3
:1048E0000AF0E4CF09F0E4CF08F0E4CF07F0E4CF1A
:1048F00006F0E4CF05F0E4CF04F0E4CF03F0E4CF1A
:1049000001F0E4CF00F01200D9CFE5FFE1CFD9FFED
:1049100000C0E5FF01C0E5FF02C0E5FF03C0E5FF01
:1049200004C0E5FF05C0E5FF06C0E5FF07C0E5FFE1
:10493000020EDBCF00F0030EDBCF01F0040EDBCF65
:1049400002F0050EDBCF03F002C006F00650046E45
:10495000800A33E100C0E9FF01C0F3FF025092EC8E
:1049600033F0056EF3CF06F0F4CF07F003C0E5FF98
:1049700005C0E9FF06C0F3FF075072EC35F000C038
:10498000E9FF01C0F3FF025092EC33F0056EF3CF64
:1049900006F0F4CF07F0052A02E3064A072A05C00D
:1049A000E5FF06C0F4FF07C0F6FF00C0E9FF01C045
:1049B000F3FF025000EC35F020D004C000F000AA54
:1049C0001CD0007A0050046E04E10350AFEC35F0C7
:1049D00014D00450010A04E1035002EC00F00DD0A1
:1049E00004500F0A04E10350AAEC31F006D0045041
:1049F0000E0A03E10350BFEC35F0E4CF07F0E4CF3B
:104A000006F0E4CF05F0E4CF04F0E4CF03F0E4CF08
:104A100002F0E4CF01F0E4CF00F0E4CFD9FF1200C0
:104A200000C0E5FF01C0E5FF02C0E5FF03C0E5FFF0
:104A300072A277D038EC33F0006E005005E104012B
:104A4000176B0401166B6DD017C401F000500126DE
:104A500038EC33F0026E00060250230A1FE1010E0B
:104A6000005CD8A05CD038EC33F0036E690A03E137
:104A700079EC31F054D00350720A03E11DEC35F0AB
:104A80004ED00350730A01E04AD0928C7186A38AFB
:104A9000A398745074507198718841D00250430AA1
:104AA00005E00250420A01E03AD001D0008E050133
:104AB000806B00C081F500500F01006F0501802B55
:104AC00004011751011814E038EC33F0006E0501B1
:104AD0008127000E05018025026E036A0F0E032256
:104AE00002C0E9FF03C0EAFF00C0EFFF802BE8D758
:104AF000000E05018025006E026A0F0E02220501DC
:104B0000811D036E032A00C0E9FF02C0EAFF03C053
:104B1000EFFF0501802B80C57EF50501786B01C094
:104B200017F4E4CF03F0E4CF02F0E4CF01F0E4CFD8
:104B300000F01200D9CFE5FFE1CFD9FF00C0E5FFBB
:104B400001C0E5FF02C0E5FF03C0E5FF04C0E5FFCB
:104B500005C0E5FF06C0E5FF020EDBCF00F0030E47
:104B6000DBCF01F0040EDBCF02F0050EDBCF03F04C
:104B700003C004F0056A0350D8B453D000C0E9FF65
:104B800001C0F3FF0250E0EC34F0066E430A03E18B
:104B9000010E056E038E0406002A02E3014A022A72
:104BA000A39A7198929CA398A4A8FED77280736A66
:104BB0000000A4A8FED7729003C073FF0000A4A851
:104BC000FED7055005E0420E736E0324056E05D036
:104BD000620E736E620E0324056E04C003F0035070
:104BE00015E00000A4A8FED700C0E9FF01C0F3FF54
:104BF0000250E0EC34F0046E04C073FF045005264C
:104C00000306002A02E3014A022AE9D70000A4A809
:104C1000FED7051C736E732A0000A4A8FED71DECF6
:104C200035F0E4CF06F0E4CF05F0E4CF04F0E4CFB4
:104C300003F0E4CF02F0E4CF01F0E4CF00F0E4CFE2
:104C4000D9FF120000C0E5FF01C0E5FF02C0E5FF8B
:104C500003C0E5FF04C0E5FF006A6C0E0024016E8E
:104C6000026A050E022201C0E9FF02C0EAFFEF6AF4
:104C7000002A020E005CF1E3006A0050020DF450BD
:104C8000026EF3CF01F0E00E0124036E000E02204D
:104C9000046E03C0E9FF04C0EAFFEE6AEF6A5C0E2F
:104CA0000124036E040E0220046E03C0E9FF04C059
:104CB000EAFFEE6AEF6A550E0124036E030E02202E
:104CC000046E03C0E9FF04C0EAFFEE6AEF6A750EE6
:104CD0000124036E030E0220046E03C0E9FF04C02A
:104CE000EAFFEE6AEF6A950E0126030E022201C06A
:104CF000E9FF02C0EAFFEE687F0EEF6EE80E0024C7
:104D0000016E026A040E022201C0E9FF02C0EAFF3E
:104D1000EF68002A100E005CD8A0AFD7AF0EC06EAF
:104D2000C16A010EC26EC282E4CF04F0E4CF03F088
:104D3000E4CF02F0E4CF01F0E4CF00F01200432012
:104D4000412025642025640A0000D9CFE5FFE1CF8A
:104D5000D9FF00C0E5FF01C0E5FF02C0E5FF03C0C9
:104D6000E5FF04C0E5FF05C0E5FF06C0E5FF07C09D
:104D7000E5FF08C0E5FF09C0E5FF0AC0E5FF0BC07D
:104D8000E5FF0CC0E5FF020EDBCF00F0030EDBCF2A
:104D900001F0040EDBCF02F0050EDBCF03F0060EB0
:104DA000DBCF04F0070EDBCF05F0080EDBCF06F0FB
:104DB000090EDBCF07F002500A6E0150096E005059
:104DC000086E06C00BF007C00CF0FF0E0626072287
:104DD0000B500C101AE003C0E9FF04C0F3FF0550AC
:104DE000E0EC34F00B6E032A02E3044A052A0BC000
:104DF000E5FF08C0E9FF09C0F3FF0A5072EC35F087
:104E0000082ADFE3094A0A2ADCD702C0F4FF01C0FE
:104E1000F3FF0050E4CF0CF0E4CF0BF0E4CF0AF046
:104E2000E4CF09F0E4CF08F0E4CF07F0E4CF06F0D8
:104E3000E4CF05F0E4CF04F0E4CF03F0E4CF02F0D8
:104E4000E4CF01F0E4CF00F0E4CFD9FF1200D9CFD6
:104E5000E5FFE1CFD9FF00C0E5FF01C0E5FF02C0DB
:104E6000E5FF03C0E5FF04C0E5FF05C0E5FF06C0A0
:104E7000E5FF07C0E5FF020EDBCF00F0030EDBCF3E
:104E800001F0040EDBCF02F0050EDBCF03F017C4F8
:104E900018F4040116510401185F1851046E04043B
:104EA000186F03C004F0056A030E0426D8B0052A63
:104EB00018C406F0076A0750800FF36E0550800F84
:104EC000F35C02E10450065C02E2E8682ED0020EB8
:104ED000035C02E2E86A29D003060350E56E5FEC4A
:104EE00030F0E652046A0350045C14E204500024DB
:104EF000056EE86A0120066EE86A022005C0E9FF37
:104F000006C0F3FFE0EC34F0042AE56E5FEC30F00D
:104F1000E652E9D717C418F4040116510401185FCA
:104F20001851006E0004186FE86AE4CF07F0E4CF70
:104F300006F0E4CF05F0E4CF04F0E4CF03F0E4CFD3
:104F400002F0E4CF01F0E4CF00F0E4CFD9FF12008B
:104F5000D9CFE5FFE1CFD9FF00C0E5FF01C0E5FFF4
:104F600002C0E5FF03C0E5FF04C0E5FF05C0E5FFA3
:104F700006C0E5FF07C0E5FF08C0E5FF0BC0E5FF81
:104F80000CC0E5FF0DC0E5FF020EDBCF00F0030E05
:104F9000DBCF01F0040EDBCF02F0050EDBCF03F018
:104FA000060EDBCF04F003C0E5FF04C0F4FF00C031
:104FB000E9FF01C0F3FF025039EC35F00050020F59
:104FC000056E000E0120066E000E0220076EE86AD4
:104FD00004BEFF0E086E0D6E04500C6E03500B6E77
:104FE000E56A0BC0F4FF0CC0F6FF0DC0F7FF05C06B
:104FF000E9FF06C0F3FF0750CFEC34F0080E00269F
:10500000000E01220222E56AF46AF66AF76A00C01D
:10501000E9FF01C0F3FF0250CFEC34F0E4CF0DF014
:10502000E4CF0CF0E4CF0BF0E4CF08F0E4CF07F0CE
:10503000E4CF06F0E4CF05F0E4CF04F0E4CF03F0D2
:10504000E4CF02F0E4CF01F0E4CF00F0E4CFD9FFE9
:105050001200D9CFE5FFE1CFD9FF00C0E5FF01C0C5
:10506000E5FF02C0E5FF03C0E5FF04C0E5FF05C0A2
:10507000E5FF020EDBCF00F0030EDBCF01F0040EE4
:10508000DBCF02F00050020DF450036EF3CF00F0BE
:105090005C0E0024046E040E0320056E04C0E9FFBC
:1050A00005C0EAFF01C0EEFF02C0EFFF550E00246D
:1050B000046E030E0320056E04C0E9FF05C0EAFF7D
:1050C000EECF04F0EFCF05F00150045C016E02500A
:1050D0000558026EB50E0026030E032200C0E9FF3C
:1050E00003C0EAFF01C0EEFF02C0EFFFD88002AEAE
:1050F000D89004E3021E016CD8B4022A0250800F3B
:10510000800F02E1030E015C02E2016A026A0150B3
:10511000021007E100C0E9FF03C0EAFF000EEE6ADB
:10512000EF6AE4CF05F0E4CF04F0E4CF03F0E4CF7E
:1051300002F0E4CF01F0E4CF00F0E4CFD9FF120099
:10514000D9CFE5FFE1CFD9FF00C0E5FF01C0E5FF02
:1051500002C0E5FF03C0E5FF04C0E5FF05C0E5FFB1
:1051600006C0E5FF020EDBCF00F0030EDBCF01F03F
:10517000040EDBCF02F0050EDBCF03F0D88001AECA
:10518000D890046A0436045007E0011C066E001C27
:10519000056E054A062A04D000C005F001C006F0DD
:1051A000D88003AED89007E3031C016E021C006E8A
:1051B000004A012A04D002C000F003C001F00150EF
:1051C000E56E0050E56E0650E56E0550E56E32EC7A
:1051D0002CF0006EF3CF01F0040EE12604500AE03B
:1051E000011C036E001C026E024A032A03C0F3FF77
:1051F000025003D001C0F3FF0050E4CF06F0E4CF2B
:1052000005F0E4CF04F0E4CF03F0E4CF02F0E4CF04
:1052100001F0E4CF00F0E4CFD9FF1200D9CFE5FFD1
:10522000E1CFD9FF00C0E5FF01C0E5FF02C0E5FF07
:1052300003C0E5FF04C0E5FF05C0E5FF020EDBCFBC
:1052400000F0030EDBCF01F0040EDBCF02F0050E01
:10525000DBCF03F06AC504F06BC505F005016A3FBA
:1052600001D06B2B0350E56E0450E56E04EC32F078
:10527000E652E6526AC504F06BC505F005016A3FC7
:1052800001D06B2B0250056EE56E0450E56E04EC08
:1052900032F0E652E6526AC504F06BC505F005012E
:1052A0006A3F01D06B2B0150E56E0450E56E04ECB3
:1052B00032F0E652E6526AC504F06BC505F005010E
:1052C0006A3F01D06B2B0050E56E0450E56E04EC94
:1052D00032F0E652E652E4CF05F0E4CF04F0E4CF3A
:1052E00003F0E4CF02F0E4CF01F0E4CF00F0E4CF2C
:1052F000D9FF1200D9CFE5FFE1CFD9FF00C0E5FF0C
:1053000001C0E5FF02C0E5FF03C0E5FF04C0E5FF03
:1053100005C0E5FF06C0E5FF020EDBCF00F0030E7F
:10532000DBCF01F00038E8441F0B026E036A6C0EFD
:105330000226050E032202C0E9FF03C0EAFFEFCFF9
:1053400004F00050056E070E0516010E066E05509E
:105350000DE006E6E86CD8900636010FFDE306D0B6
:10536000D89006BED8800632010FFBE30450061227
:1053700002C0E9FF03C0EAFF06C0EFFF000E0024F1
:10538000026E036A050E032202C0E9FF03C0EAFFB2
:1053900001C0EFFF016AE80E0026040E012200C0E2
:1053A000E9FF01C0EAFFFF0EEF68E4CF06F0E4CFAB
:1053B00005F0E4CF04F0E4CF03F0E4CF02F0E4CF53
:1053C00001F0E4CF00F0E4CFD9FF1200D9CFE5FF20
:1053D000E1CFD9FF00C0E5FF01C0E5FF02C0E5FF56
:1053E00003C0E5FF04C0E5FF05C0E5FF06C0E5FF1B
:1053F000020EDBCF00F0030EDBCF01F0040EDBCF9B
:1054000002F00501775119E1F7EC23F0036EF3CFB9
:1054100004F0F4CF05F0E9CF06F003C0E5FF04C0C7
:10542000F4FF05C0F6FF06C0F7FF00C0E9FF01C0AA
:10543000F3FF0250CFEC34F01ED005017751010A82
:105440001AE100C0E9FF01C0F3FF025018EC33F08D
:10545000006EF3CF01F0F4CF02F0E9CF03F0035078
:10546000E56E0250E56E0150E56E0050E56E0EEC03
:1054700029F0040EE126E4CF06F0E4CF05F0E4CFF6
:1054800004F0E4CF03F0E4CF02F0E4CF01F0E4CF86
:1054900000F0E4CFD9FF1200D9CFE5FFE1CFD9FF6B
:1054A00000C0E5FF01C0E5FF02C0E5FF03C0E5FF66
:1054B00004C0E5FF020EDBCF00F0030EDBCF01F0EE
:1054C000040EDBCF02F00050070F036E000E012028
:1054D000046E000E0220E56E0450E56E0350E56E8A
:1054E000E3EC2FF0030EE1260050230F036E000EB5
:1054F0000120046E000E0220E56E0450E56E03509C
:10550000E56EE6EC2CF0030EE1260050330F036E3F
:10551000000E0120046E000E0220E56E0450E56EC0
:105520000350E56E75EC2BF0030EE126440E0026C9
:10553000000E012202220250E56E0150E56E00507D
:10554000E56E75EC2BF0030EE126E4CF04F0E4CF1A
:1055500003F0E4CF02F0E4CF01F0E4CF00F0E4CFB9
:10556000D9FF1200D9CFE5FFE1CFD9FF00C0E5FF99
:1055700001C0E5FF02C0E5FF03C0E5FF04C0E5FF91
:1055800005C0E5FF06C0E5FF020EDBCF00F0030E0D
:10559000DBCF01F0040EDBCF02F0050EDBCF03F012
:1055A000060EDBCF04F0070EDBCF05F0080EDBCFD5
:1055B00006F0D88003AED89015E306500A0A12E12F
:1055C00004C0E9FF05C0EAFF2D0EEF6E044A052A6C
:1055D000031E021E011E006C05E1012A03E1022ADE
:1055E000D8B4032A0650E56E0550E56E0450E56E0A
:1055F0000350E56E0250E56E0150E56E0050E56E19
:105600009FEC1EF0070EE126E4CF06F0E4CF05F094
:10561000E4CF04F0E4CF03F0E4CF02F0E4CF01F0F4
:10562000E4CF00F0E4CFD9FF1200D9CFE5FFE1CFFE
:10563000D9FF00C0E5FF01C0E5FF02C0E5FF03C0E0
:10564000E5FF04C0E5FF05C0E5FF08C0E5FF09C0B0
:10565000E5FF0AC0E5FF020EDBCF00F0030EDBCF53
:1056600001F0040EDBCF02F0050EDBCF03F0060ED7
:10567000DBCF04F003C0E5FF04C0F4FF00C0E9FF86
:1056800001C0F3FF025039EC35F0020E0026000E87
:105690000122022204BEFF0E056E0A6E0450096E3E
:1056A0000350086EE56A08C0F4FF09C0F6FF0AC09F
:1056B000F7FF00C0E9FF01C0F3FF0250CFEC34F068
:1056C000E4CF0AF0E4CF09F0E4CF08F0E4CF05F02E
:1056D000E4CF04F0E4CF03F0E4CF02F0E4CF01F034
:1056E000E4CF00F0E4CFD9FF1200D9CFE5FFE1CF3E
:1056F000D9FF00C0E5FF01C0E5FF02C0E5FF03C020
:10570000E5FF04C0E5FF020EDBCF00F0030EDBCFA8
:1057100001F0040EDBCF02F00250E56E0150E56EA1
:105720000050E56EE3EC2FF0030EE1260050010F70
:10573000036E000E0120046E000E0220E56E045080
:10574000E56E0350E56EE3EC2FF0030EE12600500A
:10575000020F036E000E0120046E000E0220E56EA3
:105760000450E56E0350E56EE3EC2FF0030EE126E6
:105770000F0E0026000E012202220250E56E01509B
:10578000E56E0050E56E32EC2EF0030EE126E4CF1C
:1057900004F0E4CF03F0E4CF02F0E4CF01F0E4CF73
:1057A00000F0E4CFD9FF1200D9CFE5FFE1CFD9FF58
:1057B00000C0E5FF01C0E5FF02C0E5FF03C0E5FF53
:1057C00004C0E5FF05C0E5FF020EDBCF00F0030ECD
:1057D000DBCF01F0040EDBCF02F000500B0F036EA5
:1057E000000E0120046E000E0220E56AF46AF66ADB
:1057F000F76A03C0E9FF04C0F3FFCFEC34F00050B8
:10580000070F036E000E0120046E000E0220056ECD
:10581000030E0026000E01220222E56AF46AF66AEF
:10582000F76A00C0E9FF01C0F3FF0250CFEC34F08B
:10583000E56AF46AF66AF76A03C0E9FF04C0F3FF99
:105840000550CFEC34F0E4CF05F0E4CF04F0E4CF22
:1058500003F0E4CF02F0E4CF01F0E4CF00F0E4CFB6
:10586000D9FF1200D9CFE5FFE1CFD9FF00C0E5FF96
:1058700001C0E5FF02C0E5FF03C0E5FF04C0E5FF8E
:1058800005C0E5FF06C0E5FF020EDBCF00F0030E0A
:10589000DBCF01F0040EDBCF02F0050EDBCF03F00F
:1058A000046A056A0350800BE844066E065011E155
:1058B0000250022603360350015C02E10250005CF4
:1058C00004E2D8900332023204D0052A05C004F065
:1058D000E9D70350015C02E10250005C04E302508E
:1058E000005E0350015AD8900332023204C005F022
:1058F00004060550EEE101C0F3FF0050E4CF06F0CE
:10590000E4CF05F0E4CF04F0E4CF03F0E4CF02F0FD
:10591000E4CF01F0E4CF00F0E4CFD9FF120000C0E3
:10592000E5FF01C0E5FF02C0E5FF2EEC32F0006E9E
:105930004C0A08E12EEC32F0300A02E0898E3FD0AA
:10594000899E3DD00050450A25E1000EE56E420ECD
:10595000E56E200EE56EA3EC2FF0030EE126B9EC08
:1059600035F0016E01C002F0010602500FE02EEC8E
:1059700032F0E56AE56E000EE56E420EE56E220E2F
:10598000E56EA3EC2FF0050EE126ECD70A0EAAEC8B
:1059900031F015D00050570A12E12EEC32F0520AC5
:1059A0000EE12EEC32F0490A0AE12EEC32F0540AF4
:1059B00006E12EEC32F0450A02E17DEC35F0E4CF51
:1059C00002F0E4CF01F0E4CF00F01200D9CFE5FF00
:1059D000E1CFD9FF00C0E5FF01C0E5FF02C0E5FF50
:1059E00003C0E5FF04C0E5FF020EDBCF00F0030EAD
:1059F000DBCF01F0040EDBCF02F00050060F036E88
:105A0000000E0120046E000E0220E56E0450E56ECB
:105A10000350E56E32EC2EF0030EE12600500C0F21
:105A2000036E000E0120046E000E0220E56E04508D
:105A3000E56E0350E56E32EC2EF0030EE1260E0EFD
:105A40000026000E012202220250E56E0150E56E92
:105A50000050E56E32EC2EF0030EE126E4CF04F0A8
:105A6000E4CF03F0E4CF02F0E4CF01F0E4CF00F0A4
:105A7000E4CFD9FF1200D9CFE5FFE1CFD9FF00C0B5
:105A8000E5FF01C0E5FF02C0E5FF03C0E5FF04C07C
:105A9000E5FF020EDBCF00F0030EDBCF01F0040EBA
:105AA000DBCF02F0E56AF46A00C0E9FF01C0F3FF52
:105AB000025039EC35F00050020F036E000E012049
:105AC000046E000E0220E56AF46AF66AF76A03C003
:105AD000E9FF04C0F3FFCFEC34F0080E0026000EFF
